:020000040800F2
:10000000700400207D0100088501000887010008B8
:10001000890100088B0100088D0100080000000024
:100020000000000000000000000000008F01000838
:1000300091010008000000009301000895010008EC
:100040009701000897010008970100089701000830
:100050009701000897010008970100089701000820
:100060009701000897010008970100089701000810
:100070009701000897010008970100089701000800
:100080009701000897010008000000009701000890
:1000900097010008970100089701000897010008E0
:1000A00097010008970100089701000897010008D0
:1000B0009701000800000000970100080000000000
:1000C0009701000800000000970100089701000850
:1000D0009701000897010008970100080000000040
:1000E00000000000000000009701000897010008D0
:1000F0009701000897010008970100089701000880
:1001000097010008000000000000000097010008AF
:1001100000000000000000000000000000000000DF
:1001200000000000000000000000000000000000CF
:1001300000000000000000000000000000000000BF
:1001400000000000000000000000000000000000AF
:10015000000000000000000097010008970100085F
:100160009701000897010008DFF80CD000F018F89C
:1001700000480047E908000870040020064880474E
:1001800006480047FEE7FEE7FEE7FEE7FEE7FEE77C
:10019000FEE7FEE7FEE7FEE7E5010008690100086B
:1001A000064C074D06E0E06840F0010394E80700C4
:1001B00098471034AC42F6D3FFF7DAFFD0D40008EA
:1001C000F0D400080907090E002806DA00F00F0035
:1001D00000F1E02080F8141D704700F1E02080F865
:1001E000001470471448016841F001010160016882
:1001F0008907FCD54168114A114041604168104AA5
:1002000011404160416821F44001416001680D4A9C
:1002100011400160C16A21F00F01C162016B40F21F
:10022000431291430163416B21F0010141630021BD
:10023000816000F009BD0000001002400C00FF08C2
:10024000FFFFC277FFFFF2FE014A024900F013B838
:10025000390300086C00002002E008C8121F08C122
:10026000002AFAD170477047002001E001C1121F37
:10027000002AFBD170472DE9F04116460F4604468F
:10028000002503E03946B047641C6D1C2078002827
:10029000F8D12846BDE8F0814FF0E0210A6922F04C
:1002A00004020A610649C00800EB40020870C2EB74
:1002B000C0104FF6FF7202EAC0004880704700008D
:1002C000680000200849498848434FF0E021486110
:1002D00000238B61012008610869C20701D0C003B7
:1002E000FAD50B618B6170476800002070B5054638
:1002F00000241EE0C820FFF7E5FF002000F0B4F85E
:10030000012000F0B1F8022000F0AEF8032000F068
:10031000ABF8C820FFF7D6FF002000F099F80120C5
:1003200000F096F8022000F093F8032000F090F817
:10033000641CAC42DED370BD70B5074D0446C1B23B
:10034000284600F01FFD4021284600F037FD002818
:10035000F9D0204670BD0000003801402DE9F04181
:1003600007462748874200D1002440F2115000F090
:10037000C3FB244830F8140000F0BEFB214D4FF0C1
:1003800090482D1D012135F8240082B2404600F02E
:1003900077F82E1D012136F8240082B2404600F085
:1003A0006FF835F82400012283B20221404600F0A4
:1003B00092F835F82400012283B20021404600F073
:1003C000AEF836F82400012283B20221404600F044
:1003D00082F836F82400012283B20021404600F062
:1003E0009EF8384600F0D2FC4FF4E131384600F078
:1003F0009DFC3846BDE8F041052100F0E4BC00005A
:10040000003801400400002070B504460F4830F861
:10041000140000F071FB0D4D0022083D05F112069D
:1004200035F8143056F82400012100F054F835F85E
:10043000143056F824000322002100F070F856F81A
:10044000241035F81400886270BD000036000020CA
:100450000449044A123231F8101052F82000816227
:10046000704700002E0000200449044A123231F87F
:10047000101052F820008161704700002E0000200B
:10048000F0B5046A456A00234FF0010C4FF00F0EDF
:100490000CFA03F6164206D09E000EFA06F7BC438D
:1004A00001FA06F73C435B1C9BB2082BF0D30823F0
:1004B0000CFA03F6164207D09E00203E0EFA06F70D
:1004C000BD4301FA06F73D435B1C9BB2102BEFD3F3
:1004D00004624562F0BD2DE9F0470568C668002456
:1004E0004FF0010A4FF003090AFA04F71F420ED039
:1004F000670009FA07FC25EA0C0526EA0C0601FA52
:1005000007F802FA07FC48EA05054CEA0606641CEF
:10051000A4B2102CE8D30560C660BDE8F087F0B542
:100520000129416818D0994341608468002101265F
:10053000032706FA01F51D4208D04D0007FA05FC15
:1005400024EA0C0402FA05FC4CEA0404491C89B2B2
:100550001029EED38460F0BD1943E5E72DE9F041A1
:100560001F461646CA19521E93B28219521E92B2E3
:10057000069D00F06BF90F494FF02008C1F800808C
:1005800000247E4307E005EB440015F81410407882
:1005900000F094F9641CA642F5DC002140F23F1300
:1005A000EF22084600F052F902491039C1F80080E4
:1005B000BDE8F081281400482DE9F04707460021E6
:1005C00040F23F13EF22084600F040F9114908209D
:1005D000086011494FF02008C1F800800F4E002537
:1005E0004FF4A0794FEA172A00245146304600F014
:1005F00020FBF9B2304600F01CFB641CF02CF4D355
:100600006D1C4D45F0D304491039C1F80080BDE898
:10061000F087000018080048281400480030014006
:1006200070B500F093FA87482024046086481025AE
:1006300005606420FFF746FE8348103805603220CD
:10064000FFF740FECB2000F043F9392000F02AF9F3
:100650002C2000F027F9002000F024F9342000F0CD
:1006600021F9022000F01EF9CF2000F031F900201E
:1006700000F018F9C12000F015F9302000F012F94F
:10068000E82000F025F9852000F00CF9002000F0AA
:1006900009F9782000F006F9EA2000F019F90020A5
:1006A00000F000F9002000F0FDF8ED2000F010F956
:1006B000642000F0F7F8032000F0F4F8122000F0B6
:1006C000F1F8812000F0EEF8F72000F001F9202089
:1006D00000F0E8F8C02000F0FBF8232000F0E2F87A
:1006E000C12000F0F5F8102000F0DCF8C52000F083
:1006F000EFF83E2000F0D6F8282000F0D3F8C7200D
:1007000000F0E6F8862000F0CDF8362000F0E0F8A2
:10071000482000F0C7F83A2000F0DAF8552000F041
:10072000C1F8B12000F0D4F8002000F0BBF8182088
:1007300000F0B8F8B62000F0CBF8082000F0B2F8CE
:10074000822000F0AFF8272000F0ACF8F22000F093
:10075000BFF8002000F0A6F8262000F0B9F801202C
:1007600000F0A0F8E02000F0B3F80F2000F09AF8B5
:10077000312000F097F82B2000F094F80C2000F0C6
:1007800091F80E2000F08EF8082000F08BF84E2033
:1007900000F088F8F12000F085F8372000F082F8AA
:1007A000072000F07FF8102000F07CF8032000F014
:1007B00079F80E2000F076F8092000F073F8002098
:1007C00000F070F8E12000F083F8002000F06AF8F3
:1007D0000E2000F067F8142000F064F8032000F009
:1007E00061F8112000F05EF8072000F05BF831207E
:1007F00000F058F8C12000F055F8482000F052F8F9
:10080000082000F04FF80F2000F04CF80C2000F00A
:1008100049F8312000F046F8362000F043F80F2068
:1008200000F040F8112000F053F87820FFF74AFD5F
:10083000292000F04DF82C2000F04AF8014810382B
:10084000046070BD28140048280800482DE9F041D4
:100850000E4613494FF020081C4615460746C1F8BE
:1008600000802A2000F034F8F9B2380A00F026F8A7
:10087000E9B2280A00F022F82B2000F029F8F1B2A2
:10088000300A00F01BF8E1B2200A00F017F82C2023
:1008900000F01EF802491039C1F80080BDE8F0816F
:1008A00028140048034B08221A600146024800F051
:1008B000C0B90000180800480030014010B50C46CF
:1008C000FFF7F0FF2046BDE81040FFF7EBBF000048
:1008D000034B08221A600146024800F0AAB9000042
:1008E000280800480030014008B500F0E3F900F0A6
:1008F00001FA1D48FFF732FD4820FFF7CDFC01202B
:10090000FFF7F4FC40F2115000F0F6F840F21250FC
:1009100000F0F2F840F2135000F0EEF840F21650FA
:1009200000F0EAF8FFF77CFE10A0FFF78DFC1F2017
:10093000FFF742FE12480E21009050236A2208461B
:10094000FFF70CFE0F48009050236A220E217920F9
:10095000FFF704FE0C48009050236A225F210E200E
:10096000FFF7FCFDFEE700000038014073797320BB
:10097000696E69742073756363657373200A000080
:100980000E0E00088E9200084E5000082DE9F04728
:1009900051A188B072C98DE8720050A1524ED1E9C0
:1009A0000041CDE904414DA18046D1E90041CDE9A6
:1009B000064100207168024603464C4DC1F3810197
:1009C00019B1012901D0022901D0294617E0716827
:1009D0007468C1F38341C4F3C0640CB1113100E009
:1009E000891C7468C4F300443CB1F46A04F00F0439
:1009F000641CB5FBF4F4614301E03D4C6143746851
:100A0000C4F303141DF8047021FA07F477680DF19C
:100A1000100CC7F302271CF8077024FA07F977684F
:100A20000DF1180CC7F3C2274FF4004A1CF80770E9
:100A300024FA07F7B8F1070F06D2DFE808F0040838
:100A40000A0C0E293100084608B0BDE8F0872046A0
:100A5000FAE74846F8E73846F6E7306BC00501D4B8
:100A6000244A13E07068C0F3813030B1012806D009
:100A7000022806D0032809D107E07A0806E0BA0860
:100A800004E00620B7FBF0F200E0FA081046DBE7CE
:100A9000306B400602D448F21200D5E75046D3E747
:100AA000306B80070ED0306B00F0030001280BD0B4
:100AB000306B00F00300022808D0306BC043800781
:100AC00006D006E03B4604E00B4602E0534600E059
:100AD0002B461846B8E700000000000000000000A8
:100AE00001020304060708090010024000127A0000
:100AF00000093D00809FD500054901EB90110A686F
:100B000000F01F030120984002430A607047000074
:100B100000100240054901EB90110A6800F01F0324
:100B20000120984082430A60704700000010024094
:100B3000054901EB90110A6800F01F03012098405D
:100B400002430A60704700000010024010B588B0F0
:100B500040F20C60FFF7D0FF234C382200212046E2
:100B6000FFF78EFC3823002202212046FFF7B3FC5A
:100B70003823032200212046FFF7D1FC1B4C182309
:100B8000002201212046FFF7A6FC182303220021A2
:100B90002046FFF7C4FC164C2023002201212046EA
:100BA000FFF799FC2023032200212046FFF7B7FC22
:100BB00000204FF48271CDE90010032105914FF41C
:100BC0000071CDE902010B4C069004906946204665
:100BD00000F01DF80721204600F00EF8204600F036
:100BE00011F808B010BD00000004004800080048DB
:100BF0000014004800300140026842F400520260D4
:100C000001617047016841F040010160704710B513
:100C100003680A680C691A434B6813438A681A43CD
:100C2000CB6813434A691C4389692243114301601D
:100C300010BD82689207FCD5C1608168C907FCD0ED
:100C4000C068C0B27047000018480021026842F432
:100C50008032026040F6010203689B0302D4491C03
:100C60009142F9D1016889031FD54168416041680B
:100C700041604168416041680D4A114041604168EE
:100C800041F4E8114160016841F080710160016840
:100C90008901FCD5416821F003014160416841F0C0
:100CA0000201416041680907FCD57047001002400D
:100CB000FFFFC27770B50E484FF47A710068B0FB41
:100CC000F1F0401EB0F1807F11D24FF0E02460615E
:100CD00065170F212846FFF775FA0020A06107204D
:100CE00020612846BDE870400021FFF76BBAFEE79F
:100CF0000000002010B50020FFF786FB0120FFF761
:100D000083FB0220FFF780FB0320FFF77DFB002021
:100D1000FFF79EFB0120FFF79BFB0220FFF798FBEC
:100D2000BDE810400320FFF793BB000070B50D46EF
:100D3000044613490020611804D0B1F5744F04D162
:100D4000062000E00220FFF721FE21680A044FF68A
:100D5000F07108D5400000EB5500B0FBF5F0014004
:100D600000F0070206E000EB5500B0FBF5F0014093
:100D700000F00F02E06811430843E06070BD00001E
:100D800000BCFFBFC1F30801816270470A4910B57A
:100D9000401805D0B0F5744F0CD140F20E3401E08C
:100DA00040F211442046FFF7C3FE2046BDE8104044
:100DB000FFF7B0BE10BD000000BCFFBFC069084017
:100DC00000D00120704706290CD2DFE801F01C0793
:100DD00010141803016841F00C0102E0016841F0B1
:100DE00004010160016841F0010101607047016880
:100DF00041F00801F5E7016821F00401F1E701681D
:100E000021F00801EDE7016821F00C01E9E75BEF53
:100E10007BEF3AEF7BF75BEF5BEFF9E697D677CEA8
:100E2000D09C73ADB094B3AD5AE735BED4B53AE7B4
:100E3000D9D616BE98CE17BEB18CF394F294D29444
:100E40000E7CEE7BF19C7BE719D7B7CEB7CE54C6AC
:100E5000D6D676C635BED5B5B4ADD4B5F3B595CE38
:100E6000F2B553C694CED6D695CE55C614BE96CE00
:100E7000B6D675CE30A5EFA4F4BD79E779E79AE749
:100E800059DFF8DEEC836A730D846A6BEC7B11A585
:100E9000D094D7D617DF96CEF6DE55E7F3D636DFF9
:100EA00078E7B7CE75C694CED5D618DF7BE75CE77A
:100EB0005CE75CEF5CEF5BE73BDFDAD6FBDEFAD6A4
:100EC0009BE718D775C659EF15C652AD8E94D09CC6
:100ED000F4BDD7D659E7D4BD56C657CE19DF3AE789
:100EE00077CE78D67BF7B8DEB8DE1AEF98D636C65E
:100EF00016C6D8DE52A557CEB4B5B4B53ADF93AD19
:100F000093AD3AE7D9D657C678C658C6B294F2948C
:100F1000139D139D2F840E7CD194D8D639DFF8D63B
:100F200076C634BE55C656BEB4AD93A573A593AD73
:100F3000D4B535C6F3BD13BE54C6D6D6D6D635C63F
:100F4000F4BD55C675CE96D610A5AF9C35C639DF13
:100F500039D759DF7AE719E7ED83AC7BCC7B6A732D
:100F60000C7C93AD52A5F8DE18DF76CE95CEB4D6C4
:100F7000B3D616DF99EF76CE76CED5D6B5CE19DFBD
:100F80007CEF7CEF5CE77DEF5CEF5BE7DAD6DAD6EF
:100F9000DAD63BDF7BE7D7CE54BE39E755CE32AD4C
:100FA000AF9431A5F4BD19E77AEFF4BD56CEB8D6AB
:100FB0005AE77BEF97CE74B59DFF1BEF78D65CF7B1
:100FC0007CF7B9DEB5BD57CED5BD57CE37C6D5BD3A
:100FD0005BE7B9D616C61AE7B9D678CE37C678CE4B
:100FE000D29CD294F29CD1940E7CED7B8F8C77CEE8
:100FF00019DFD8D697CE97C6B7CE77C616BED5B569
:1010000057C657C6D5B556BE36BE56BE97CEB8CE15
:10101000B7D697CE97CEF8DED7DED7DE52ADB09CEE
:10102000B4B5D8D65ADF7BE77BEFD9DE4F94ED839A
:10103000AC7B8A73EC8394B516C63AE73AE797D649
:1010400015C6B6DED6DED7D65AEFB8D697D617E78E
:1010500017E73AE73BE75BE75CEF3CEF5CEFFADE74
:10106000FBDE1BDFBAD61BE79CEFD7CE55C65AEF87
:10107000B7DE12A5B09431A576CE3AEFF9DE15C6EB
:1010800097D6D8DE9BEFF8DEB7D60F8C5094D2A45B
:10109000F2AC13ADF2A4F2A4F2A453B5B5BDD5BD24
:1010A00078D616C698D63BE7D9DED9DE16C6F6C581
:1010B000B5BD99D6D6BD74AD53A5F29C2E842A63D6
:1010C0002A63D09C52A532A532A5F1948F8494ADA9
:1010D000129D33A533A5F294908CF294F19412955D
:1010E000F194129D129D53AD32A573AD31A58F942D
:1010F000ED830E8C909412A532A512A5F29CD19C82
:10110000ED83AC7BAC7B8A736A73096B8B739094B1
:10111000F2A474B593B5F4C5B3BDD09CF1A4F5C5E4
:10112000D4BD92B5F4C593B553AD33A5F29C53AD80
:1011300053AD74ADB5B595AD74ADD29CB094AF8CD4
:101140006E8C2D84EC830E8CED830D844E8C2E845E
:101150008F946F8CB09CD09CF1A452ADB3B5A862B3
:10116000C9622A730A6B2A730A6BA8620A6B2A6B1C
:101170002A734B738B7B6B738B734E8C4E940D8CDD
:10118000AC7B0D8CED836F944F8C9094B19C33AD00
:10119000B9DEFAE616C633AD90940E84EE7B0E846B
:1011A000CD73CD734C6BCE732F842F844F844F84BB
:1011B0004F84708C4F84B194EE7B508CD29CD19C28
:1011C00012A553AD33AD53AD74B5B5BD94B557D677
:1011D00037CE16CED5C5B4BD12ADD09CAF9C875AC4
:1011E0004A6B94B533AD94BDB5BD94BDD5C537CE6E
:1011F00097D693B5D3BDF3C5F3C555CE77D637CEC5
:1012000037CE32AD56CE76CED4B5D5BDB4B5B4B5A5
:1012100094AD4E84119DD4BD31ADF0A451ADF4BD5B
:1012200036CE32A5D4BD15C636C656CE77D615C62F
:1012300036C6675A4652675A875A875AA862E96A79
:10124000875A875A875AA862A85AE962E962E9620E
:10125000A85A096BE96A0A6B0A6B0A6B2A6B2A6B3C
:101260002B6B6C73AD7B6C732F8C2F8C33ADD5BD1A
:1012700058CE37CE37CE16C6708C74ADD6B574AD99
:1012800074AD95AD74ADB5B5D5BDF6BD919454AD05
:10129000F7C558CE99D6FADEF6C594B598D678D665
:1012A00073B51AEFB8DED5C5F1A4F1A40D8C8F94F7
:1012B00032ADAB7B32ADBDFFDADE1AE77CF7DAE6A2
:1012C000B9DE9DF71AE756CE55CE14C655D6F8E6C8
:1012D000B7DE97D619E7AF9CF8DEF8DEB7D6F8DEB2
:1012E000D8DE7BEFBCF7B4B597D69BF776D630AD9A
:1012F000CF9CF4C5B7DE11A5F5BD98D6D8DED9DEF2
:101300001AE7D9DEB8DE2652675A2652465A2652C6
:101310002652675A675AC862A8628862E962E9621F
:10132000A862A85AA862885AE96A096B0A6BE96A36
:101330002A6B2A6B2A730A6B0A6BEA6A4B73EE8379
:1013400033AD13A5F2A4D1A433ADF29C708C708C94
:10135000B294918CB294718C7194B29C9094B19C23
:10136000EE7BB1949194D29C919433A554AD74B515
:10137000D5C573B511AD56D636CE93BD909CB09CF5
:101380008C7B2E8CF1A4296BD5C59DF7BADE1BE7AB
:101390007CF7FBE658CE5CEF7CEF19E776D676D685
:1013A00056D697DE56D656CE15CEAF9CB3BD35C6B3
:1013B00056CEF4BD15C61AE79CF773B593B597DE04
:1013C00015CE72B5CF9C11A531AD2D8CB4BDB4BD79
:1013D00093B557CEB8DED9DE37CE0652A862675A2B
:1013E000465A465A8862A862A862A862A862A862A1
:1013F000E96AC8622A73C862C862A8624B7BE96A5C
:101400000A6B0A732A730A6B2A6B6B7B2A732A7323
:101410002A732F9433ADF2A433AD54B554B554AD03
:1014200033ADB19474ADB5B554AD55AD54AD34AD27
:1014300033AD94B5909433ADB5BD95B5D6BD95B5E6
:1014400054ADB5BDD5BD73B552B557D616CE73B52F
:10145000B09C6F948B7B2E8CB09C6A7336CE7DF7DC
:10146000DADE1AE77CEFB9D658CE7DEF7CEF3AE7AB
:1014700077CE19EFB8DE35CE35CEF5C5B3BD8F9C2E
:10148000D4C556CE15C6B4BDB4BDB8DE9CFF73B589
:10149000B09C56D6F4C5F4C5D4BDD3BDD4BDD09C44
:1014A00076D697D636CEB8DE5AEF7BF7F5C5675AB3
:1014B0008862475A675A475A675AE96AA862675A60
:1014C000C96AE96A8862E96AE96AC962E96AC96A55
:1014D000C86A2A73E96A2A734A73E96A4B7B6B7B91
:1014E0000A6B4B734B732F8C94BD33ADB6BD75B582
:1014F00014AD74B553ADB09C93B594B574B574ADDB
:1015000013A574AD53AD54ADD2A454B595BDB5BDBE
:1015100075B5B5BD95B574B5B5BD74B594BDF5C516
:10152000F5C593B5B09C4E946B7B4E94B0A4AC7B48
:10153000B4BD9CF75BEFF9E63AEF37CEB9DE7CEF4E
:101540007CEFFADE98DE5BF7D8E636CED4C552B52E
:1015500010AD6E94B3BD55CE14C615C693B557D60F
:1015600057D6909CF1A477D615C614C6D4BDF4C541
:1015700093B5D09C56CE56CE15C6D8DE3AEF5AEF6C
:10158000F09C064A46522652A862C96AC96A475A5E
:10159000675A8862EA6A0A73A862A862C9620A6B1B
:1015A0000A6B4A73E96AC862C86A4A738B7B096B23
:1015B000E96A096B4B736B7B6C7B6C7B54B517C60C
:1015C00055B535AD35AD34ADF2A4B09C73B573B53A
:1015D00053AD13A513A533A5F29C53ADB19C33AD08
:1015E00033B554B554B5B5BDB6C595BD53B5B19C6D
:1015F000D1A412AD37D677DEB4C5F1AC8F9CB0A4C0
:10160000B0A4ED8BF1AC36CED9DE3AEFF9E636CEAA
:10161000B8DE7CEF1AE7F9E6B8DE1AEF77DE15CE12
:1016200056D6D3C572BDF0A4F3C555CE76D6B6DE78
:1016300055CEB3BD32ADD1A452B593B552AD71B54F
:1016400092B5B3BD51AD92B515C6D4BD55CE39EFE7
:101650005AEF9BF7D09C26526652E86AE86AC86245
:10166000E86A8862A86287628762875AA862A8626D
:10167000A8622A732A73097349730973096B096B8A
:10168000297309732A732A734B7B4B7BCD83CD83DC
:10169000F3AC58D634ADF4A4D49C9194D29CB194BC
:1016A0006F8C508C71947194318C508C508C508C08
:1016B000B19C719413A5B5BD58CE95BD2F944C7BAC
:1016C0000B730A7B886A0A73CD8B73BD57DE1AF7DA
:1016D000B4C5D1A4F1A40D8CF1A473B5F5C576D62B
:1016E00055CE35CEB7DE7BF757CE19E7D9E656DEB5
:1016F00015D6F4CD96DE14D692BD51B514CEF3C5F1
:1017000013C614C6D3BDB3BD52B511AD73BDB3BDC1
:10171000D3BDF3BD13BE14C692B5F4BD96D676CE36
:10172000B7D69BF73AE7B8D672AD675A675AE86AF8
:10173000C862A862E96AA862675A8762C86AE96AE9
:10174000E96AC862C8622A73297329732973E86A2F
:10175000096B29734A732A7309732A734B7B6B7B5A
:10176000AC830E8CD2A478D654B5B39CD3A4B19CD0
:10177000F19CD19CF1A4F2A4D29CF3A4D2A4F2AC2B
:1017800033AD74B512AD34AD17CE5CF7B5BD0F9463
:10179000CA6A686A486A26622662066288722A8372
:1017A000ED9BB4CD7BFFB4BDF1A42E9494BD57D670
:1017B00097DEB7DE15CE35CEB7DE19E7B4BD77D6E6
:1017C000B8E697E656DEB3C576DE96E6D3C514C610
:1017D000D7DE54CE75D675D655CE55CED3C592BD6F
:1017E000D3C596D6B7D674CE74CEF3BD92ADD3BD65
:1017F000D4BD56CE19DFF9E632A511A573AD675AEF
:10180000875A675AA862A862C862675AA862886243
:10181000E96A096BE96AC862096BE96AE96A2A73CD
:10182000096B0A730A6B4B736B7B2A732A734A7BAF
:101830004A736B7B6B7BCD83D1A457D6F6C5B5C5F8
:10184000F6CDF5CDB3C572BD76DE97E6F5CD15D6EE
:1018500015D614D615D635D6B5C5F7CD1CF7D6C5D1
:10186000509C0A7B686A276A066A4672256A467235
:101870004672887AA87A4B83D1AC3AEFD5C5709C72
:1018800037D65BF719EFF9E697DE77DE77D6D8E63D
:10189000B4BDB8DED9EEB8E697E656DE76D6B6E643
:1018A000D3C597D65AF7D8E618EF19EF39EF18E7EE
:1018B000D3C534D655D6F9E65AE7D7D638E7B6D6E3
:1018C000D3B555C6B3B5B3B519DF3AE757CE16C68B
:1018D00057C6A862C862C962675A875A4652E96AFF
:1018E0000A73E96AE96AE96AE96A2A736B7B096B38
:1018F0002A73E96A0A6B8C7B4B734B732A732B73C5
:101900006B7B8C834A7B2A736B7BED8BF2ACB5BD12
:1019100098DE57D636D696DE75DEF3C5F7EED7EEEF
:1019200014D6D3CD55E695EE75E6D7EE16D6FBEE7A
:1019300075BD2F940A73A97247722672467A057292
:101940002572457245728782A87AE982AC9394C564
:1019500077DE4F9477D69CF73BEF3BEF1AEFB9E673
:1019600016CE57D656CE5AF73AF71AF7B8E676DEBD
:10197000B6DED6E6F3CDD9E65BF7F9E659EF3AEFF6
:101980003AEF18E7B3C513CE54D618E759E7F7DE98
:10199000D6D6D7D6F3B592AD72A5B3B519DFF9DEB9
:1019A000D8D657CE98D6A8628862E96A675A886204
:1019B000675A0A73C96AA8620A730A73E96AE96A0C
:1019C0002A73096B096B09730A732A734B734B7B78
:1019D0004B7B4B7B2B7B6C838C832A734B7BED8BFC
:1019E00033B574BD98DE97D656CED7DE17E734CE22
:1019F00037EF18EF35D6B3C575DEB6E696DE15CEF1
:101A000077DE17CEEF8B0A7BE982667A467A257AF3
:101A1000657A867A857A6572867A667AA782E8829E
:101A20006A93ED9BB4C511ADB8DE7BEF5BEF5BEF66
:101A30003AEF1BEFD9E63AE7D4BDB7DE18E719EF66
:101A400077DED7E638EF17EF13CED8E61AE7F7E6DA
:101A500018E719EF39EFF8E634CE33D6B5DE7AEF72
:101A600038DF94CE90ADD2B596C6D4B593ADF4BD63
:101A70007AEF56C653A5F5BD77CE675A885A675A8E
:101A800088628862A8628862C96AE96AE96AA862AB
:101A90000A732A732A732A73096BE96A2A732A73F1
:101AA0006B7B2A732A734B7B4B7B4B7B4B7B4B7B38
:101AB0004B7B8C7BD1A4D5C598D65AEFB7D6D6DE52
:101AC00038EF13CEB6E6B6E634D6D3CDD7EED7E6AA
:101AD000B7E6F4C516CE2F944B830983088B667A3C
:101AE000457A66826582657A657A867A657AA782A2
:101AF0008682C8824A93AB9BAFAC32B5F9E67BEFE6
:101B00005BEF5AEF3AEF5BF7D9DE5AEF14C6D7E630
:101B100018E77AF7F8E6F8E617E717EF34CEF8E6B5
:101B20005AEF38EF37EF18E759EF38EF34CED5DEFC
:101B300058EF79EFF7DEF2B54FA534C635C6B3AD31
:101B4000D3B5F4BD7AE7B4B593AD56CE36C6675A71
:101B5000875AA862096BC862E96A2A73E96AC8628F
:101B6000E96A4A73096B2A732A732A738B7B4A7357
:101B70006B7B2A734B7B4A736B7B4A732A734B7B59
:101B80008C83AC838C83EE8BB1A4B5C536CE5AEF73
:101B9000D7DE75D6F7E6F3CD75DE75E613D691CDB3
:101BA00054E6B6EE55DE73BD6FA4097BC87A088B88
:101BB000A78266826682668286828682A682868204
:101BC000A6828682C78AC78A098BAB9B4DACAFA41D
:101BD0005AF73AE77AEF58EF38EF39EF39E73AE753
:101BE00036CEB7E6F8EE5AEF5AEF18E717E738EFB8
:101BF00055CEB6DE18E758EF17E795D674D6F6E659
:101C000054CED6DE58EF79EFB6D6D2B570AD14C645
:101C100014C6D3BD55CE34C654CEB2B5D7DE55CEDC
:101C200097D64652A862C862E96AA862E96A096B57
:101C3000E96A2A73E96A096B096B096B2A734B7BA2
:101C40002A73E96A4B7B6B7B4B732A736B7B6B7BD1
:101C50004A738C836B7B6C7B6B7BEE8B909CB5C5E6
:101C600015CE18E796D654D6B6DEF3CD95E6D6EE69
:101C700033DEB1D554E696EED3CD90AC8B8BA77AFC
:101C8000A782C78286828682878A878A868A868A90
:101C9000A68AC78AC78AA68AC78AC78A088B8A9BE8
:101CA0004DACAFACB7E67BF739E7F7DE58EF18E796
:101CB00059EF19E7F5C597E6B8E6F9E65AEF18E7E0
:101CC000F7E659EFB3BDF7DE18E795D6D6DE74D642
:101CD00013C6F3C5F3C5D6DE38E738E758EF17E784
:101CE000F7DE96D696D618E775CE35CEB6D618E777
:101CF00018E7B7DEF8E6A862C862A8628862675A89
:101D0000675A875AC96AC96A096B2A732A732A7380
:101D10002A734A73096B0A730A734A734B7B6B7B92
:101D20006B7B4B7B2A736B7B6B7B6B7B4B7B8C83E3
:101D30002F9494BDF5CD18EFD6DE34CEF7E653D60A
:101D4000D5E617F774E6F2CDB5EED7EE72C5ED9392
:101D50002A83C8828782867A667A8682A68AC78A1A
:101D6000A78AC78AC78AC68AC68AC78AE792E78AC5
:101D7000E78A4993EBA3AFB435D63AEF5BEFF8DED1
:101D800059EF39EF7AEF1AE716CE39EF3AEFF9E665
:101D90003AEF3AEF5AEF5AEFB4BD3AE73AE7F9E6CD
:101DA0003AEF56D6D3BD55CE35CE18E739EFF7E624
:101DB00017E7B6DED7DE77CED9DE7BEF7BEF3AE7EB
:101DC000F9DEB8DEF8E656D6B6DEA862A862C862CA
:101DD000C862C862C862C8622A73096B096B096B62
:101DE0000A734A734A734A732A732A730A738B7B82
:101DF0008C7B6B7B6B7B6B7B6B7B8C83AC834B7B40
:101E00004B7B8C7B709CB5C5B4C517EF17EFF4CD39
:101E100059F794D6B4DE16EFF6EE33D6D6E6F7F6DB
:101E200071C56A834A83C882667A667A857A8682B1
:101E3000C78AC792C792E7920793E7920793E79200
:101E40000793079328934893CAA38EB4D3CD3AEF50
:101E50005BEF1AE739E759EF59EF19E736CE39EF5B
:101E600039EF19E73AEF19E719E7F9DE58CE7CEFB9
:101E70003BEF5CEF7CEF5CEF9CF71AE756D65AEF2E
:101E800039EF14C634CE96D676D657CEFADE5BEF4F
:101E90001BE73BEFB9D677D6F9DED8DEF8E6A862C5
:101EA000A862096BC96A87628862A862E96A0A73D4
:101EB000C86A2A734A7B096B2A734A732A730A73A6
:101EC0000A736B7B2A73096B8B7B8B834A736B7BE7
:101ED000AC834B7B8C838C7B2F9474BD94C517EFA4
:101EE000B6E632BDB7E695DEB4D616E736EF94DE39
:101EF000B5E6D6F6B1D5E77A0983A7828682667AF7
:101F00008682A68AC792E79207930793089327933E
:101F1000289307930793079328934893AA9B8DB41C
:101F200051C57BF71AE73BEF3AE739E739E719E79D
:101F300076D658E758E739E75BEFF8E63AEFFAE686
:101F400099CE5CEF5CEF7DEF5DEF5DEF3CEF1AE764
:101F5000D9DE5BEF97DE56D6B7DE19E73AEF78CEDB
:101F60003BE79CEF7CEF5CEF3BE71AE7F9DE19E714
:101F7000F8DEE96A675A675A8862E96A0973097381
:101F8000C862C862C8624A7B4B7B096B0973096BE4
:101F90004A7B6B7B4B7B4B7B2A73096B8B7BAC83C4
:101FA0002A732A736B7BAC838C83AD838C8333B5AC
:101FB000B4C5D8EEF4D5B0AC93C514CE95D636E7FB
:101FC00016E7B5DE95DEF6EE53E6656AE782867AB9
:101FD000867A86828682A68AC792E89A089B089BA0
:101FE000089B2893289B289B079308932893289362
:101FF000CAA38DB4F0BCD8E63BE75CEF5BEF39E7F2
:102000007AEFD8DE96D637E737DF19E73AEFF9E609
:102010005AF71AE7B9D67DEF5DEF5DEF5DEF5DEF43
:102020005DEFFADEFAE65BEFB8DEF9E65BF77BF729
:102030003AEF78CE1BDF5CE77CE73BE75BE75BE7EB
:10204000F9DEF8DE97D6675A675AA862E96A09731B
:10205000E96AE96A0973E96AE96AE96A096B0A7374
:102060002A73E96A6B7B6B7B4B7B6B7B2A73096BF7
:102070002A736B7B4B7B6B7B6B7B8C83AC83EE8B94
:10208000AD8312AD94BD15CEF1ACB0ACB0A432AD01
:1020900075CE37E757E796DEB6DE17EFF6EE246A21
:1020A000867A667A457A86828682878AC792E89A95
:1020B000089B289B289B289B289B089BE892C792FB
:1020C000E7920893EBAB8DB4CFB477DE5CEF5CEFB7
:1020D0005CEF5AE77AEFF9E6B7DE16E717E73AE77B
:1020E0005BF719EF19EFB8DED9DE7DEF3CE75DEF66
:1020F0007DEF3DE77DEF99D63BE73AEFB8DE1AE793
:102100003BEF1AEF3BEF78CE3BDF9CEF3ADF9CEFE3
:102110005BE75BEFB8D677CE15BE675AA862A862B8
:10212000A8620A7309730A730973E96AE96AE96ABA
:102130004A7B0A73E96A09734A7B4B7B4B7B6B7B57
:102140002A734A734A73AC834A7B4B7B6B7B8C83C9
:102150008C83CD8BAD83D1AC74BD73B50E844F949D
:102160004E8CB09C97D639E739E71AEFF9E639EF8C
:102170009AFF65624572867A867A86828682868A28
:10218000A792C792E89A289B499B499B089BC792B4
:10219000868A2582457AA682ECABCFBCF0BC9CFF38
:1021A0003BF73CEF5CEF5BE75BE7D9DEB7DE37E799
:1021B00038E71AE71BEFD8E6D8E677D6F9DE7CEFEA
:1021C0007CEF5DEF5DEF5DEF5CEFD9D63BE75BEF5A
:1021D0001AE71AE77CF77CF7FAE6FADE7CEF3BE7D2
:1021E0005BE75BE73AE739E7F9DEB4B532A5097397
:1021F0008762A862875AA862E96AE96AC96AE96AD5
:10220000C96A2A734A734A7B2A732A7309732A7329
:102210000A732A732A736B7B6B7B8B838B834B7B59
:102220008C834B7B6B7B8C838C83B1A453B5D5BDE6
:10223000F29CB4B593ADF6C577CE7CEF5BEF3CEF87
:102240001BE75CE7BDFFC76A656A867A6682657AC6
:10225000257A24822582458AA792E89A299B499B60
:10226000089BA692868A658AA68AE792ABA38EB45B
:1022700031C5B8F6B9EE5CF75CE75BE77CEFD9E611
:10228000F8E638EF38E73AEF3BEFF9EE19EF98D67A
:102290001AE77CF77CEF7CEF7DEF7CEF7CEF98CE4C
:1022A0003AE73AE75AEF3BE75BEF3BEFB9DED9DEBF
:1022B0001ADF1AE71ADF5AE75AEF3AE71AE71AE77E
:1022C000FAE6E96AA862E96A2A73E96A8862A8629A
:1022D000E96A4A7B2A734A7B2A732A734A7B8B7B7F
:1022E0006B7B0A730A732A738C836B7B8B7B4B7BB0
:1022F0006B7B8C83CD8B6B7B6B7B6C7BEE8BB1A410
:1023000013ADF6C578CE98CE1ADF1AE737CE3CEF7C
:102310005CEF3CE77DEF3CEF7CF7CC8BC77AC88A5B
:10232000299B868A257A6682099B099BC792E79238
:10233000089B69A3089BC792C78AA78A089369A3C9
:10234000AAA34DAC11C5ECABB0B47CF75CE71ADFC7
:102350001AE777D677D6B6D696D678D699D657D600
:1023600077D6F6C557CE78D678CE58CE58C637C66B
:1023700037C6D5B5F5BDB4B5D4B5D5BDB5BDD6BD9B
:1023800095B594B5D5BD16C677CED9DE3AE75BEFE5
:102390005BEF7CEF5CEFC86AC86AC86A0973C96AF8
:1023A000A862C86AE96A0A73E96A09732A734A73F8
:1023B0002A732A734B7B2A732A732A736B7B6B7B7A
:1023C0008B7B6B7B8B836B83CD8B8C834B7B4B7B32
:1023D000CD8B709C33ADF6C5FADEFADE3BE71BEF22
:1023E00017CEFBE65CEF5CEF7CF75BFF5BFFB4D5E1
:1023F0006A938BA3E892A68AE8922A8B476A476A77
:10240000098BE892289B48A3499B2A8B2020002017
:1024100040286161489BEBA3AEBCAEC46DB494BDD3
:10242000B5B5B5B594B573B594B5F4BD15BE57CE75
:1024300099D6B8D6F9DEFAE61BE73CEF3CEF5CEF45
:102440005CEF5CE75BE75BE75AE75BEF7BEF5BEF3B
:10245000D9DE1BE73BEF3BE75CEF5CEF5CE75CEF53
:102460007CEF5CEF5BE75BEF5BE78862C86AC96A99
:10247000E96AA862A862A862A862E96A0973097396
:10248000E96AE96A2A734A7B2A732A730A734B7BC7
:102490004B7B6B7B4A734B7B4A7B4B7B8C83AD8B3B
:1024A0006B7B8C838C832F9433B5D6C579D699D624
:1024B00079D638CE34B538CE37C6D5B5D5C5D1BC2A
:1024C000E98A6A938A9B4A9BA78AC792C369803824
:1024D000001800186772A68AC692279B499BE9825A
:1024E0000662476A6A93499BAAA32CACCFC46DBC11
:1024F000D3DD5BF75BE75BEF7CF77CF77CEF9CEF72
:102500007CEF7CEF7CEF7CEF9DEF7DEF7DF75DEF67
:102510005DEF7DEF5CEF5CEF5CEF5BEF7CEF7BEF03
:102520003AE7D9DE98D6FAE65BEF3CE75CE75CE792
:102530003CE75CE75CEF5CEF5CE73BE71AE788624F
:102540008762A862C96AE96A0A73E96A2A73097329
:10255000E96AE9722A732A7B0A730A732A7B8C83DD
:102560006B7B8C832A736B7B2A738B836B7B6B8374
:102570006C83AD8B8C83CD8BCD8B0E94F2ACD6C59A
:1025800013AD14ADD3A4D3A4F3A413A532A553A5BE
:1025900053B5D0BC8AA3E78A699B0893E892A68AC0
:1025A00007932993E88A4A9BC78AE792E79AE692BB
:1025B00007930893E88A0993289B489B89A32CB426
:1025C00031CD0DAC3AFF3BEF5CEF3CEF7CF77CEF9D
:1025D0007DEF7DEF7DEF7DEF7DEF5DEF7DEF7EEFBA
:1025E0007DEF5DEF5DEF7DEF5DEF5CEF5CEF7CEF2E
:1025F0005CEF1AE7D9DE98D6B8D6F9E63BE73CEFB0
:102600005DEF5DEF5DEF5DEF5DEF3DEF3CE73CE7DC
:102610003BE7E96A8862A862C86AE96A0973C86A1E
:102620000973E96A0A73E972E96AE96A2A732A7323
:102630002A730A730A734B7B4B7B6B7B4B7B4A7B06
:102640002A736B838C838C838C836C83CD8B0E8CF1
:10265000D2A454B5D6BD96B5B6BDB7BD17C678CE13
:1026600077C678CE78D698EE299389A3489B299B84
:102670006A9B289B48A3089B289BC792C792E79216
:10268000C69248A3E79A48A349A3E89A089B48A39F
:1026900069A3CBABF0C436E63BF75CF75DEF5DF7C3
:1026A0005CEF5DEF5DEF7DEF5DE75DEF5CEF3DE7DC
:1026B0003DE75DEF3CEF3CE73CEF5DEF5CEF3CE777
:1026C0003CEF1BE71BE7DADE1AE7FAE63AE73AE700
:1026D0005BEF3BEF3CEF5CEF5CEF5CEF5CEF5CF7DC
:1026E0005CF73BEF5BF7475A8762C96AC86AC96AF9
:1026F000A86A8862A862C96AE97209732A732A7390
:102700002A730A734A7B0A73E96AE96A4B7B4B7B3B
:102710006B7B6B7B6B7B4B7B8C838C834B7B2B73BF
:102720008C83EE8BB1A474AD79CE79CE79CE9AD666
:102730003CE79DEF3CE79FEFDFF77DF7B8EEA67A29
:10274000489B8AAB089B089B28A349A3089B099B2D
:10275000C792A692079B079B69ABE79A089B29A3A0
:1027600049A349A369A30BB4CFBCFAEEFBE6DBE6B1
:10277000FBE6FBE6DBDEDBDEFBDEFBDE1BE71BE76F
:102780001BE71BE71BE73BE73BE73CE75CEF7DEF25
:102790007DEF7DF77DF77DF77DF77DF77CF77CF7A3
:1027A0007BF77BF79BF77BF75AF75AF739F719EF67
:1027B000F8EE18EFF8EED8EEF8EEA862C86AC86A2C
:1027C000C86AE972A862A862A862E9722A7B2A73C1
:1027D0000A7309732A7B4A7B6B832A7BE972E96A55
:1027E0006B7B6B7B6B7B4B7B6B7B4B7B6B83AC8BA0
:1027F0006B7B6B7B8C7B0E8C919C54AD99CEFADEFF
:102800003CE75CE75DE79EEF9BCE748478A59FE78D
:10281000DFFF53C5A77A4A9B089B089B28A329A3DF
:1028200008A349A3A792089B289B49A329A329A3EE
:1028300049A3E89A49A349ABAAAB2CBC8EB4DEFFEE
:102840003DE75DEF5CF77CF77DF79DF79EF79DF721
:102850009DF79DF77DF77DF77DF75CEF5CEF3CE73B
:102860001BE71BE7FBE6D9E6B9DE36CE36D655D6F2
:10287000F3CDD3CDB2C571BD0FB50FB5EEB4CDB4A8
:10288000CDACACACACACEDB4EDBC2EC54FC5C86A9C
:10289000A762A762C86AE86AA862875AA862A862A3
:1028A0000973E97209732A7B2973E96A0973C9728A
:1028B000E97AE96AE96A2A73096B8B834A7B0973AF
:1028C0002A7B0A734B7BAC836C7B8C7B509413A567
:1028D00079CE79D679D699CE3DDF737C6919356C7E
:1028E000F563F88CBECED5944D734A93E792E79A80
:1028F00028A349AB8AB329A3C792289BC78AC7924A
:10290000099B289B69A3E892299B49A3AAB30BB40E
:1029100011C5728C9FE73DE7FAE61AEFD9E6B9D602
:1029200099CE99D658CE37CE17C638CEBADE58CE05
:1029300099D6BAD659CE17C632AD8F9C6D9C4A9C9B
:10294000699C47A467AC06A4C59BE6A3E7A3E6A3DE
:10295000E5A306AC47AC67B488BCC9C40ACD2BD587
:102960002BD5A762E86AC86A67628762E86A096B62
:10297000E86A0973C86AC86A2A7B4A7B2A734A7B59
:102980004A7B4B836B836B7B6B7B6B736B7BAC8307
:10299000CC8B8C8B8C8BAC8BCD8B0E94ED8B0E9467
:1029A000709CF3A43CEFBEFFBEF7FFF77BBED26383
:1029B000F0423243B8747774F88C799DB0732A83EF
:1029C000E78A079B08A349AB6AAB29A3089BC79278
:1029D000E892E89A089B089369A3299B299B09A37D
:1029E000ABB3ECB3B1B48729747CFCD67DEF1BEF9D
:1029F0001BEF5CE71BDF3BE73BEF5CEFFADE7DEFB5
:102A00005CEF7DEFBDF79DF7BEFF9DF79CFF9BFF41
:102A100095E6B0C54CBD0ABDC9BC87B487B467BCD8
:102A200067BC46BC65BC66BC66BC66BC86C4C7CC1D
:102A3000C8D409D5C8D4C86AE86AE97209732A7388
:102A4000096B0A734A732A734B7B4A7B2A7B4A7B46
:102A50004A7B6A834A7B6B7B4A7B8B83AC8BAC83E0
:102A6000CC838B838B838B838B838B83AC8BAC8B63
:102A7000CD930F9C2F9CB29C1BE71BE71CDFB9A5D5
:102A800092539353F55B5764944B52432D2AF36B47
:102A90002629C651E882089B08A349A36AABE89A95
:102AA000A792A892A78AC88A8682089369A3E89207
:102AB000299B6BAB8BAB0EB4EE9BE51888218C4A3F
:102AC000F17BDFFF5DEF5EEF1DE77DEF7DF7DADE87
:102AD0005DEF5CEF1BE75DEFFBDE1BE75DEF3CEFBF
:102AE0001CEF5DF7BEFFBDFFD9EE55DE13DE4EBD18
:102AF000ABAC49A467AC87B486BC66BC66BC86C474
:102B000086C4A7CCA7CCA7CCA7CCE96AE972097385
:102B10000973297329732A732A73E9720A73097373
:102B20002A732A7B0973097B097B0A7B0A7B2A8B20
:102B30002B8B2B8B2B832A834B838B838B838B8BCE
:102B40006B836C8BAD93EE930F94919C74AD13A536
:102B5000F4944909B032D13A3664B8745664ED1928
:102B6000188D6D428831C7492B8BE88A28A349A369
:102B70008AAB089B878AC579057AC4718369C3715A
:102B80008048E371299B4AABACAB50B4AA6A472991
:102B90000619CA3188295EEF3DE71DE79FF75DEF13
:102BA0005CEF1CE73CE71BE79EF73CE73CE71CE7D4
:102BB0003CE75CEF7DEFFBDEDBDEDBDE3DF71CEFB1
:102BC0007CFF9BFF9AFF37F711D6AAB489B447ACB4
:102BD00067B487BC86BC86C466C487C466C4C86A3A
:102BE000E96AC86AA862A862C862C86AA86AC96AAB
:102BF0006762675A675A465A26620662A461235181
:102C0000E250C2584469447103616459E661265A2E
:102C100046622662065A265A265A2752685AF2A453
:102C2000DADE9AD60619CC19B02ACD11D132B453B6
:102C3000B8745A8D51532B3A8731E528285A299375
:102C4000289B29A38AAB6AA30159C579E681C57976
:102C5000678A268A0161457A08936AA3EDAB8D8B5A
:102C600005316731C610EA3169297BCEBFF77EEFA7
:102C70007EEF1CE71CE75DEF7EEF3CE7DBDEDBDE93
:102C8000FBDEBAD61CE71BDF1BDF3CE7DAD63CE7EE
:102C90009DEF5CEF9DF79CF73BEF7CF7DDFF9CFF22
:102CA00097E62FBD8BAC68AC66AC66B467BC67BCFE
:102CB000E6ABE549C441A441E549054AC549A449F3
:102CC000C549A449E551055205520552065A4351DA
:102CD000C248436144698258615821586158035978
:102CE000E661265A4762265A265A475A26522752E2
:102CF000885A13AD38CE35AD68211143D1320E223A
:102D00002E2A7353F984356C2C32C931673147311F
:102D10008320C9722993299B6AA3089B257AA579E8
:102D20008579A5796792E68943692893899BAB9B4E
:102D30006C8B8320472967290721EB31481933849D
:102D4000DFF7FCDEFCE65DEF5DEF9EF77EEF1CE754
:102D50003DE7FBDEFBDE1CDF7DEF1CDF59C658C6FE
:102D600099CEDAD6B9CE58C679CEDBD6DBDE39CEEF
:102D70009AD63DEF5DF79CFF99FF32D66A9C457B62
:102D8000C372A372626AC549E549E549E549054A46
:102D9000054AE5510552065A265A05522552055252
:102DA000C451A14064616359225181502048825826
:102DB00081500251E559265A675A475A475A676265
:102DC0004762685ACA62D2A4B6BDD8BD6C420C2A0A
:102DD000AF3A114B6F3A156CB3636A214C42EA3932
:102DE00048294729E5208218A96A4A93499B499BAB
:102DF0000993E5818479A581848185818892CBA31B
:102E00006EAC485A2531E5202729482906190A328F
:102E100048190A32BFF79EF7FBDE3CE77DEF3CE73F
:102E2000F7BD59C638C699D679CE59C6F7B518BE7A
:102E30009ACEDBD6FBD659C699CE99CE58C659C67E
:102E40009AD69BD65DEFDBDEDAE679D6B9DE9CF763
:102E50009CF752ADE54100000000E549054A2652C5
:102E6000054A054A0552E551E551E55905522552F5
:102E700046520552E559A14864612249A8820B9B3C
:102E800061484040A1488459E559265A475A675A33
:102E9000676268626862685AA9620F8CD39C738CFF
:102EA000640007114919EC29114BF46B4D3A482184
:102EB000AA31CA3989318931E62006216210C65902
:102EC000E882298B4993678A6792268A4792A89A53
:102ED0002AA34EACE130A320A831C518482968299F
:102EE0002719EA310611EA317BC6DFF79EEF7EEF44
:102EF0009EF75CE75CEF3CE77DEFDAD699CEFBDE30
:102F00003CE79ACE59C61CDFDBD6DBD6BACE9ACECA
:102F1000DAD61CDF1DE7FCDE5DEF5CEFDADE9AD669
:102F2000FCDEDBDEFCDEBFF7FFFFDBD62C63E54912
:102F3000E549054A054A054A255205520552055AF2
:102F4000255A255225522552E559E248A569CDA3B7
:102F5000066A60388148A148C248C559065A475A8E
:102F6000676267626862275A485A475AEA6A719CE0
:102F700055ADD07327196400A608E808D36B315308
:102F80004D4248214829AA31CA39A93106212729A9
:102F9000E5200110E3304762E782499B08932893BC
:102FA000289349A30DB4033901080629A939061944
:102FB00047214821892947218821A929337CDFF726
:102FC000DFF77EEF5DEF7DEF5CEF5CEF79CEDBDE70
:102FD0001CDF1CDF3DE7FCDEDBD6FCDE9ACEBAD67A
:102FE000DBD69ACEDBD6DBDE9AD639C65ACE9AD657
:102FF0005CE79AD6BAD63DE73DE7DBDE59C61CDF73
:10300000FBDE054A255246524652665A465A465AF1
:10301000265A4662255A8662665A255AE559435110
:10302000687A603060308030C140A140A138A5513D
:10303000276267626762A96AA96A2B7B0F9471A4F1
:1030400034B513AD14A56F6B67216829E7188B2180
:10305000B784F46BCF4A69290721AA31CA39CA3922
:10306000272107212729072942104018055A867A67
:103070002893699B49932893E5610008C618693134
:1030800048292719672127190B3AE610EA31EB3155
:10309000CA29169D9FEF5EE71CDF3CE79DF77CEF9A
:1030A0001BDF3CE71CE7DBDEDBD6FCDEDCD69BCEA1
:1030B000BBD69ACE79CE9ACEFBDEDBDE7ACE18BEB8
:1030C000D7BD79CE79CE7ACEF8BD3CE7BBD659CE06
:1030D000BBD6FCDE38C646524652265225522552F1
:1030E0004552465A465A465AA76A86628762A7627E
:1030F0006241835143518449E5594762C9724B8308
:103100006C83AD8BAD8B0E940E944F9C70A4D2AC9F
:10311000B2ACB2A4B2A4F2A434A50D632621A931A5
:10312000CA296E3AB77C114B8E42AA292821E6188B
:10313000EA39CA39AA3907210621472967314108E6
:10314000A541256A247A868A6582A68242490008BA
:103150000621AA294921271948218921A92928219D
:1031600028190B328921AD4A78A5FFFF7EEF9AD648
:103170009AD6DADE3CE7DADEDBDEBAD63DE7FCDE05
:103180009BCE5EE77EE71CDFBAD63CDF1BDFD6B501
:1031900095AD75A59ACE18BEDBD6BACE1CDFBBD6D0
:1031A00018BEDBD6DBDEDBDEBBD6A441C449E54975
:1031B00025524652665A8762A7620973E8720973FC
:1031C000097349736B834A836B8B8B8BAC8BCC8B72
:1031D000EE930E940E940E942F942F94EE8B909C5D
:1031E000919CF2ACF2ACB2A4D3A4B194F39C6E6BFC
:1031F00084106400A608156C324B8F42EC310B3200
:103200006921E6188931AA31EB39893127216829EA
:103210000721662920088872A782868AA78A877A6A
:103220000239A3180619AA296921282148218929C8
:10323000E71069294821CA3189210B3A6D427BC6C2
:103240009FEF7EEF7EEF5DEF1BE779CE79CE9AD6CA
:103250003DE79ACEBBD6BBD6DCD61CDFDBD61BD770
:10326000BACE7DE7FBD699CEBACE99C6B6AD75A5D6
:1032700096AD39C635A5D7B5B7B597B5DBDEC7620C
:10328000C86AE86AE86A086B096B297329732A7BA4
:10329000297B4A7B4A7B8B834A7B8B8B6B836B833B
:1032A0006B7BCD8B0E944F944F944F945094909C85
:1032B000B19CB19CB1A4D2A4D2A413AD13A514A502
:1032C000B2944C6B831047212819356C8F3AEB2947
:1032D0008929EB31CA3107194829AA318931A93125
:1032E000472948294931061966294010876AA77A73
:1032F000877A476A822846316829892948214821E6
:10330000892948214821E710AA2947216821A929AC
:103310008921737CFFF79FF77EF75DEF7EEF7EEFED
:103320007DEF7EEF1CE7FCDE1CDFDBD6FCDEDBD6B0
:10333000FCD6DCD67DE71CDFDBD63CDF1BD779C6AD
:1033400058C6F7BD17BE76AD55AD14A5DCDE56AD3B
:103350009AD6E86AE86AE872E86A086B096B29732A
:103360006A7B2A7B4A836A7B8B836B7BED8BAC8B7E
:10337000AC8BCC8BCD834F94EE8B4F9C2F94B1A410
:10338000B1A4919C919CD2A4F3ACD2A413A5F3A4B4
:1033900014A514A5D39CCE836531E5186821F46B80
:1033A000AF42AA2989296921EB3128210721EA396D
:1033B00089298829A93128296A3107218831452995
:1033C000A12043392339C33067392729A93148213E
:1033D00048212721A9312721E718481969212719F0
:1033E0006821A9290711CD4AFFF7BFF7BFFFBFF733
:1033F000BEF7BFF79EEF5DEF1CDF5DE71CDF7DE7EB
:103400003DE73DDF7EE77EEF7EEF7DE7DBD6BACEA0
:103410005CE75CE799CE38C618BE59CE59CE9AD62D
:10342000BBD67ACE39C6E86A097329734A7B4A7BD0
:103430004A734A736A7B4A7B4A7B8B834B7B8B7BC9
:10344000ED8BCD83AC83AC7BED8B2E94EE8BB1A456
:10345000B1A4B1A47094D29CD29CB2A413ADD3A455
:10346000B2A4F3A414AD14A5D39C51948D7BC83998
:103470008729915B2C328D4AA93928298A31EB3969
:10348000C610EA31A929A921AA2969296A31493135
:1034900008216829E931C83146218831A9396829CC
:1034A00047296829272184086729A839A510A9294F
:1034B000071148216929271907116C3ABDC63DE754
:1034C0003CE75CEF9EF7BFF75DE71CDF5CE71BDFC7
:1034D0003CE7FBDE1CDF5DE71CDFFCDE9ACE9AD604
:1034E000FBDE17BE17BEB6B534A5B7B59ACE38BE4B
:1034F0009ACEBBCEBBCE9BCEF8B5097329732A7B7F
:103500004A7B4A7B4A736A7B6B7B8C838C836B7BA5
:103510008C83AC83CD830E8C2F942E8C909C4F94F7
:103520002F94F2AC33B5F3ACD2A4D2A4D2A413AD91
:1035300034AD14AD14AD14ADF3A4D39CD39CD2A47C
:1035400071948B52F1730F53CA294829693189311B
:103550004929AA310719CA3189218921EB29692909
:10356000AA316A31C718AA31CA29A9214719AA3133
:10357000892988292A420621472946216308C41837
:103580002621271948194821E718C610EA31EB29E6
:10359000B6845EE75DEF1BE77DEF9EEF7EEFDBD647
:1035A00099CEBACE75A558C6FBDEFBDEBAD6BBD621
:1035B00059CE9AD679CEDADE59CE59CE59C6D7BD74
:1035C00055A539C679C659C679C69ACE7AC64A7300
:1035D0008B7B8B83AC83CC8BAC83AC8BCD8BCD8B3B
:1035E0000E94ED8B0F942F942F942F945094919CC4
:1035F000919CD2A47094509413ADF3A4F3AC34AD69
:1036000034ADD3A4B29CB2A413ADD2A4F3A4D3A47A
:10361000F3A4D29CB29C906B347CCE4A2C3A8A297B
:103620006929692948218A31CB396929482128210A
:10363000CB318A29AA318A3149212821CA3168210E
:103640004721A93168294629E939830866294D6B44
:103650004208A4100619061906118408C51089210C
:103660008A218A21AE4ABCCE7EEF7DEF7DEF1CDF42
:103670005DE73CE7FBD63CDF3CDF18BEDBD6FCDE7B
:103680005DE7DBD67ACEDBDE79CE38CEBADE9AD6EF
:10369000BACE79CED6B5B6B5F39438C638C659C6C3
:1036A00038BE6B7B2A732A734A7B09736B7B6B7BF7
:1036B000AC83CD8BAD830F8CCE832F940F8C2F9446
:1036C0000F8C5094919CB19CD2A433ADF3A413AD54
:1036D00034ADB29C919CF3A434AD34ADF3A413A5E6
:1036E00096B514AD14ADB29CD3945384B26BCE4A4C
:1036F0004C3AEB39CA31AA298A29693169318929B9
:1037000089290819892989298A298929AA31C7106B
:10371000AA31892947212621E939262187318310B9
:1037200049426629494A6308A408A408A40805195F
:10373000472148214919AA29EB29337CFFFF1CDFC7
:10374000DBDE5DE73CE7BAD69ACE1CDF3CDFBBCEC2
:10375000DBD6D7B5B7B5F8BDFCDEF8BDBBD67AD69B
:1037600018C655ADD6B5DBD6DAD659CE38C655AD66
:1037700096AD96B5D7B56B7B0A6BAC834B7BE96A8C
:103780000A732A738C7BEE8B0F8C0F8C0F8C0F8C33
:10379000919C5094D2A4B29CD2A4D2A4308C7194A7
:1037A0007194929C14ADF3A4F3A4B29CB29CD39CEC
:1037B000F3A4D7C596BD35AD15A5B39CF59CB26BEA
:1037C000525B10530C3AAA31AA298921AA298A31BD
:1037D0008A31C9314721A508A9318929892969294F
:1037E0008929A5106829A9312619262167212521B3
:1037F0006208A7312521CB527EE77FE70611C40876
:10380000E510E5180619061948218929EA318C4A7C
:103810009BCE7EEF3CE75DEF79CE18BE38C69ACEE0
:1038200018BEDBD6DBD659C69ACE39C6BBD6BBD6B8
:1038300079CE39CEBBDE79CE75ADB7B57ACE9AD614
:1038400079CED7BDD7BDD7BD96B56B730A6BAC7BB0
:103850006B734B734B73AC83EE8B0F8C50942F8C2C
:10386000508C919C919C919C719C919434AD54ADE1
:103870009194B29CB29CB29CB29CB29C34AD35B5D2
:10388000B29C14A555B534ADF4A4D4A4F5A4D49C2D
:10389000F5947163F04AEC31CB31AA318A29492180
:1038A0008929AA31AA31A93106190619C931672116
:1038B000682968296829E51068218829E510872981
:1038C000E51826212521E4184942CF6BD48CDCCEA3
:1038D0000D538300C410E5180619472148216821BB
:1038E0008821C929D4947EE75DEFDEF7DFF7FBDEA0
:1038F000DBD67ACE7ACE7ACE96AD18BEB7B5F8BD05
:1039000059CE7DEF76B539CE9AD659CE9BD67AD69A
:10391000F8C5F8BD39C659CE96B518BEF8BDEE83C8
:10392000CD7BCD83ED830E8C2E8CEE83EE832F8C9E
:103930005094B19CF2A471947194D2A4B29CF3A45B
:10394000D29C34ADB29CB29CB29C7194929C14A552
:10395000D39CD3A435AD14AD35ADB6BD14AD35ADE6
:10396000D49CF49C538430532E3A6A21AB31CB3132
:10397000AA31892169218A2989318829462146214C
:1039800026194621472126212621A4106729061938
:10399000E5182619C410E518E939EC5AA310A7292F
:1039A0000C5B928C5ABE01000519E510E510061952
:1039B00048198921691989214F5BFFF7BFEF9EF7ED
:1039C000FBDE79CEDBDEDBDE96ADF7BDFBDE7ACE4D
:1039D00059C696B5DBDEBAD6F49CF39C9AD6DCDEEB
:1039E000BBD67ACE39C6D7BD7ACEB7B5149DB7B59A
:1039F00038C60F842F8CEE83ED832E8C2E8C4F9443
:103A000070940F84CE7B508C508CB29CF3A454AD38
:103A100034AD13A5F39CB29C14A555AD13A575B593
:103A200034AD14A5308CD39C55AD14A575B596B5A1
:103A3000F4A4F4A456AD159D9063515BF04AEC31AB
:103A400049216929AA31CA29692169298929262197
:103A5000E418E418E410252126190519E510E518E5
:103A600025196308C4108308A310E8396A4ACB52A9
:103A7000AE732C634942C73155A5359D63002619A5
:103A800007192719E610E608481989214B3A7BC621
:103A9000FFF7DFF75CEFFBDE1CE7BAD6F7BD96ADAC
:103AA000B6B5D7B5DBD63DE79AD6D7BD18C6B6B5FD
:103AB00014A535ADD39C56AD96B576AD18C676AD8A
:103AC000F8BDD7B5F7BDEE834F8C70942F8C7094F2
:103AD0002F8C70949094D29CD29C2F84EE7BCE7BC2
:103AE000508C2F8CD29C14A5D39CF39CD39C14A5F2
:103AF000F3A435AD14A5F3A475ADD39C929455AD44
:103B000014A514A555AD55ADD394B48CF2733053B0
:103B1000CF424C3ACA3149218929CA3189296821C1
:103B20004721C41842086208A3108208A308A31002
:103B30008208C4186208A310C310C31062080419D5
:103B4000CB52CB52E7390842694AC731A6317ACE07
:103B5000A4088408C610071927198929CA31CA314F
:103B6000C931ED5A9EF738C638C6DADE1BE71BDFCF
:103B7000BAD6BAD638C6B7B5D7B596AD149D18C65D
:103B800059CED7B559CE96B5F8C5B39C76B57AD689
:103B9000F8C579CE18C679CEF7BD6C73CD7BAD7BF9
:103BA0000E840E8C70944F8C508C708CD29CD29C56
:103BB000B19CB29C508C70947094D39CF39C75AD66
:103BC00014A555AD14A535ADF4A4B29C55AD14A5FE
:103BD00096B5FBDEB7BDF4A434A59294149D77A5E9
:103BE000B163CE428D3A0B32AA31A93148218929DD
:103BF000CA316829E518E418E420E318A210A210DD
:103C0000A21082106208A310E318C318E31824213D
:103C10008631E3182842484AC639E6396952484A8B
:103C2000073A928C63080619272147216821271932
:103C3000E610C518420031841CE77DEF9DF75CEF6C
:103C40009DF75DEFDBDE18BEF7BDBAD69ACE9ACEF1
:103C500018BE59C6BAD639C676ADB7B5F8C57AD644
:103C600039CED7BD39C639CEB39C75ADF7BDEA6242
:103C70000B636C73EE834F94AD7B4F8CD19C71942E
:103C8000508C91949194308CB19C70944C6B518C6D
:103C9000718CD39CD39CB6B5B6B555AD14A5929492
:103CA000D29CD29CD7BDD7BD718CD39C7194F39C10
:103CB00056A5958410538E3A6D3AA929A9296929E8
:103CC000AA3168296829872166290421E320042173
:103CD000E318E318E3180321E31803212421242126
:103CE0000319A531E6394429E639C539474A0A633B
:103CF0002A630A6347424C630C5B420083086200FC
:103D000041004100620062004200EF7358C6D6BD18
:103D1000F7BD5CEFBDF7DEFFBEF75DE7DBD659C64A
:103D200059C638C679C6F39C59C659C659C67ACE03
:103D30009ACE39C639C6FCDE39C659C696AD76ADBF
:103D400055A5CE7BCE7BAD7BCD7B70947094EE83FE
:103D5000508CF29C13A5B194B19C709470942F8CEC
:103D60000F84B29C34A514A5D39CD39C34A555AD27
:103D700096B514A5929455AD96B5D29CB294718C1B
:103D8000B294F39C159D715BF04A6D3A0B2AA929F8
:103D900089296929692948298829251965296529D1
:103DA0000321C21823210321242103214429232193
:103DB000843164318431C53927426431C5392A637D
:103DC0008B732A6387524A63A8520642308466295D
:103DD00000004100610861086208620862002C5B13
:103DE0005CE779CEFBDEDADE99D638C6D6B5F7BD0C
:103DF00018BEF7BD18BE96ADB6B518BEF7B559C614
:103E0000FBD659C618BE59C618BE5184728CB294DE
:103E100018BED7B538C62F8C70942F8C0F8C2F8C72
:103E20000F8C2F8C919CF3A475B5F29CF2A4D29CBC
:103E300091944F8C7094F39C14A554AD55AD34A55A
:103E40009194B29413A5B6B5F7BDD6BD75AD718C7E
:103E50009294B29455AD56ADF69CF0528F42CB2958
:103E60008A21A92968216929482967292621E31877
:103E700043218531A539242903214429643123298B
:103E800064310742EA628C738C73A85A26428852C6
:103E90008B732A63674AE541E9624B6BA85AC96292
:103EA000E320A318200840080000410841086208E8
:103EB00062006721728454A558CE79CE34A5D6B558
:103EC00017BE96ADD7B5D7B5F7BD75AD96AD96AD66
:103ED0009ACE75ADF39454A574ADD294D294F7BD37
:103EE00099D638C634A5F39C139D7094508C0F8CD2
:103EF0008D7BCE83EF8BAE7BAE7B0F8CB194D29C4F
:103F000013A513A57094EE830F84F3A434A5F39C3A
:103F100013A554ADD39C34A5F39C55AD75ADB294A7
:103F2000518CF39CB294B294D39C36A5127C525B14
:103F300011534D3A89212719482147212621E5208F
:103F4000E41827426B6B6C6B8C73EA62232943295C
:103F5000A5390B630A638C73CD7BCD7B674A464AD8
:103F60002A6B6B6BE9620542464A2A6B6B732A6BBC
:103F700047522B73C6494018C228643985414439D9
:103F8000E328E2206531041935A5D6B517C637C632
:103F900017BE38C61BDF38C655A5B6B518BEF7BD67
:103FA000F7BD79C638C659C696AD17BEB6B595B534
:103FB00054A575AD54AD54ADD6B595B5D6B52C6BED
:103FC0004C6B7094B29CD2A4B2A4CA624C6B308C7D
:103FD000D29C13A5F3A4D29CB19CEE832F8CB29CEF
:103FE000F39CF39CD39CF39C55AD14A555ADD39C89
:103FF000F39C9294718CB294929496B596B577ADE9
:10400000706B2C3ACB290B322B3ACA31682106212E
:104010000521AB5AAE7B6C6B2B63AC736C73474A58
:104020000221C95A4B6B4B6B0A638C7B8C73E1206A
:10403000264A4B736B73C85AE541E9624A6B4A6B77
:104040008C7BC962A862475A02392341E559A459B9
:10405000C459256A456A876AA86A40180F8CF6C554
:10406000D29C54AD34A517C658CE75AD38C659CEBE
:1040700018BE75ADF8BD38C69ACE38C6D7B5D7B517
:10408000F7BDB6B538BE38C6F7BDF8BD35A5B7B56E
:10409000F8BD0F8CCE7BCE83EF830F8C2C6BCF8340
:1040A000308CB29C7194F39CB29C8D735094F2A4AA
:1040B00034ADF3A4B2947194518CD39CD39C518CA5
:1040C000B6B575ADB294718CB29414A5718C14A56B
:1040D000B39415A52E6307118921A8298829882959
:1040E00047214629F07BCF7B0B6BCA5ACD7BAC7B3B
:1040F0004B6B02216C6B8C736C738C736B6B8C735E
:104100000A6B8C7B6B736B736752833109632A6B09
:104110004A73AC73AC7BA862265A63412241266283
:104120006349A359A359E469C3614572E87AC5514B
:104130002B7BF2A4B5BD37C658CEF7C538C679CEAD
:1041400059CEBAD679CE59CED7B5D7B596ADD7B563
:1041500096AD18BED7B5D7B5B7B5B7B576AD76AD10
:10416000B394B38CF494108C50947194B29CAE7B45
:10417000308CB29CB29C7194308C30849194B29CFF
:104180009194EE832F8C96B5F4A4B39435A514A521
:10419000D39C96B5F49CB39414A5D39CD39C518C1A
:1041A00014A5D39C35A514A56E6B220062002100D6
:1041B0006200C5106300107C6D6BEA62CA62EE8318
:1041C0000E848C73C539AC738C73ED7BED7B6B7394
:1041D000AD7B0A6388520A6B474AC539E5412A6BB1
:1041E0000A6B2A636B6BAC7BCC7B064A6441A449A7
:1041F0000239065AA030C459266A8259867A6572F5
:10420000456A676AF1B437D6B5BD79D617C679D68F
:1042100099D675AD75AD34A5D7BD55ADB394F49CA5
:1042200079CED7B5D7BD96ADB294F49C75AD34A513
:1042300075AD96AD55A5149D55A5929C5094308CA6
:104240007194EF83308C929492943084718CF39CAF
:10425000D29C34ADF29CB29CEF83F3A434AD14A590
:10426000D39C518C92949294B294D39CF49CD39C02
:10427000F49C55ADEF7BD39C14A596ADAF6B830832
:10428000820861006108410020008D6BC95AA95A5B
:104290000E8C90940E84A8522A6BCD738C73CD7BB8
:1042A000AD73CD7B6B6BE9622A6B6B736B730A63C7
:1042B0000A6B0A632A6B2A6B6B73CC830963675A98
:1042C0008862A4498349C45120208451266A6251DE
:1042D000046A667AE8820562CD9374BD54B5B5BDB3
:1042E000B9DEDAE637CE99D6F7C5F7BD18C696B56A
:1042F00096B575ADB29476AD14A5F8BD59CE38C655
:10430000F7BDB6B554A5F39CF39CD3947184519436
:1043100051947194108C8E7B108CB29C8D730F8491
:104320009194F39C13A513A5F29C33A57194AE7BD5
:10433000B29C54ADD39C34A534A59294B394F49C10
:104340009294B39414A555AD728C34A5D39435A52D
:104350002E5B8300A308620061082000484A4B637B
:10436000EA524F8470949094AC7B274AAD7B8C6B5F
:104370008C6BAD73AD730E84EA6206420642643103
:10438000A95AED7B8752C95AE9624A6B8B73CC8379
:10439000096BE96AE96A6762265A265AC45142499A
:1043A0002562C0402672056A677AE14084492E9CE6
:1043B0008C7B16CE33B52F9474B513AD54B5F3A4DE
:1043C000B6BDD6BD75AD14A575ADB7B5F8BD59CEA2
:1043D000F8BD7ACE59CEF8BD18C696B5B7B5B7B503
:1043E000D7B5108C308C108C7194108C0C6B8D7335
:1043F000308C929491949194F39CF39CD29C719400
:104400007194D29C54AD34AD54AD75AD929435A534
:10441000F4A4F49C728C928C34A534A5F39CF39C88
:10442000728CD49446218308620841086108000018
:104430002B632B5B0E7C908C708C2E84A8520B63AC
:10444000AD732B636C6BEE7B4B6BAD73274A4329CB
:10445000C118A4396B73CD7B6752A85AC95A2A6B0D
:104460006B73ED83C85A096B4A7B4A7BE972E97228
:10447000C872C451C459403026726359477284517E
:10448000A028465A709CF2ACF2AC0E8C4F94CD83AF
:1044900013AD99DEDADEB6BD38C618C6B6B555AD71
:1044A00097B5F49C728C35A5F49CB29414A5B6B55E
:1044B00055AD55AD76AD8E7BF08B8E7B719451945E
:1044C00010841084D39CB294518C9194D29C708CA3
:1044D000AD73CE7B13A534A5B29C13A5B294B29450
:1044E000D39C15A5F49C728C1084728C92943084A9
:1044F000D39C9294718C528C2521A2108118611842
:1045000000082008AE7B0F7CB28C708C508CCD7371
:10451000A531AE738D6B6C6B8C6B4B634B6B6C739B
:10452000064223290221A85A8C73CD7B8852674A00
:1045300088524A6B6B73CC83096B2A738B7B8B839A
:10454000AC836B7B8762055AE5592249C56180308F
:1045500006622A7B2A73675A53BD58D678DE5BF70A
:1045600098DED6C578D638CE54AD718CB294308CE6
:10457000D39CF49CD39C96B579CE18BE59CED7BDAA
:1045800034A5D39C14A534A575ADCE83108CAF8310
:1045900071947194308C729414A5D39C9294AE7BD8
:1045A0006D6BCE7BD29C34AD13A514A534A5F39CC2
:1045B000F39CF39C9294D39CB394F39C728C75AD52
:1045C000B294D39CD39C34A534AD718C85314852C0
:1045D000275A8441233168521084928CB28C708C9B
:1045E0000F84AD73484A2F7CAD6B6C6BED7B8C7385
:1045F0008C738C73A53968520A632B6B8B73ED7BBC
:10460000474A8752C85A0963AC7BAC7B096BC86ABE
:104610008C83AC832A736B7BAC83A86A0A7BA4511E
:10462000E659C130886AE96AED8B53BD74BD54B553
:1046300013AD78DE99DE94BD909495B5D6BDB6BD28
:1046400013A578CE34ADF39CB294B294F39C55ADDF
:10465000D294D6BDB6B5B6B5F39C35A575ADEB62B3
:104660002F8CB29C308C508C0F8492947294718CED
:10467000F07BAF73108410849294B2949294D39C84
:10468000F49CD394318414A5F49CD39C55ADD39C55
:10469000D39C34A555AD34AD55ADD39CF3A4EF7B7D
:1046A0004429C4498349055AC96A2B6B9294B28C38
:1046B0005184EF7BAD73EE7B2B634C5B6C63CD73EE
:1046C000ED7B2F844B6B8C738852274A88520A6388
:1046D0004B6B0E84874A664AE95A09636B736B73A6
:1046E000675A8B832A73C86AAC83CD8BED8BCD8BD5
:1046F000CD8BED8B4B83CD8BC96A6F9C57D678D60B
:1047000037D6B6C5919CF2A4709412AD2F8C9194BB
:1047100095B517C6D6BDB5B595B5B294F39CD394EF
:10472000F7BD38C655AD34A5D394D39CF39C55AD95
:1047300075ADAA5A2C6BAE7B0F84308C7194B294F9
:10474000718CB294518CF49C518C1084728C14A591
:1047500035A535AD55ADF49C35A5728CB394D39C7D
:104760009294F39C34A5F39C30849294F3A4B29C6D
:10477000308C8D734752055AE8822983C972919C07
:10478000B2945184107CEF7B6C6B2B63ED730E7CC9
:10479000CD6BAD73CD738C734B6B6C73064206425D
:1047A0006752E9622A63CC7B2A63264AE95A4A6B3C
:1047B0002A6B6B73C862E549AC8BCD8BCC8BED8BD0
:1047C0006B7B8C7B0E8C6C7B2F94EE8B53B5F2A4A1
:1047D000F2A4D6C595BDF7CD79D658D653AD54AD14
:1047E000B5B534ADF3A4B29413A533A595B595B57D
:1047F000518C55ADD39C149D34A555AD34A5728C08
:10480000D39C34A575AD519451949294518C8E7B68
:10481000F083718CB394728CCF7BF49CB294D29C55
:104820003084508C9294518CF49CF4A4F4A455AD33
:10483000518C929414A534ADD29C9294D29CD39C6A
:10484000518C1084508C8D7B675A2983E882298390
:104850004B83B29C1084F07B3084CD7BEA62C95AD2
:104860000A632A5BEE7B0E7C6C6B2B63E95A2B6B25
:104870002329A4396752A85A4A6B6B736B73885209
:10488000E95A0A63E85A67528B7B675AAC830D94E6
:10489000ED8BCD8B2F94EE830E8C7094EE83CE83B4
:1048A000B19C94B574B5D5BDF6C534AD13A5D29CF5
:1048B000508CF6C517C634ADEF7BB29433A554AD1A
:1048C000EF7BD29C55ADD39C76AD96B5B7B596AD82
:1048D00014A514A514A59294B29451947194518C7A
:1048E0002D6BCF7B318C528C528C318431849294DD
:1048F000718C9294F39CB294518C7294B394B39C47
:10490000B294D39C14A5F39C34A514A554AD34A53E
:10491000D39CB294D39C9294108C4C7BC9728B9391
:10492000256A4662F2B49194718C107CAE736C73FC
:104930002A63C95AC85AC852C9522A63EA5AEA5A5B
:10494000E95A2A6B4331022943318752E9628B735A
:10495000AC7BA85A09632A6BE5418B7B875A6B7B3A
:10496000EC8BCC830E8CCD830E8C0E840E84508CFD
:10497000D6BDD5BD33AD16C678D674B574B575B58C
:10498000F7C5F7C538CE12A5B1949194D7BD58CECE
:10499000D29C34A574ADF3A4F083B39418C655AD7E
:1049A000149DD7BDD7B576ADB394B39492944C6BA8
:1049B0002C6B0B638D739294518CB394D39C518C5C
:1049C0009394728C9294B39C9294518CB39CCF7BB1
:1049D000F083929CF39CD39CD39C14A513A514A59F
:1049E00034A59194308492941084D39C519450A413
:1049F0002EA4A772CC9BCD8B13AD10845184AE73C3
:104A00008C6B4B6B2A6BE95AC85AA852C95AA852E8
:104A1000E95AA9520A63885A6439E5494331801832
:104A2000E128E5418C7B6B73A85AE5410A6B8C7BCE
:104A3000675A096BED830D84ED832E8C2F8C4F9478
:104A40009194EE83D2A495B599D6FADE98D678D60D
:104A500078CE37CE13A533A574B595B558CE95B598
:104A600079CE59CE79D675B595B514A518C6F8BDC9
:104A700075ADB39C7294728CF49C15A5D39C928CEA
:104A8000318489522B636D7392949194518CF49C70
:104A900031846E6B3184728CD49C728CB394D49CB0
:104AA0009294B29CEF83CF83B29CB29CD39CF39C34
:104AB000718CB294508CD29C9294B294D39C518CB1
:104AC000B2A40F9CC97AA8722A7BF2ACD29CF39450
:104AD0007184AD738C6B2A632A630A63C852875250
:104AE000674A674AA852885209636331A02022317D
:104AF0004231A020802080182229C541675AE96AE6
:104B00004B736B7B4652AC7BED832E8C0D84ED8317
:104B10002F8C4F945094D2A4B19C709495B578D6B4
:104B200077D637CE37CE37CE79D674ADD19C4F8C71
:104B30009194F39C308C34AD95B5D6BDDADEFCE6AD
:104B4000FBDEBAD6B6B5D7BD9294F49CF49C97B56B
:104B500018BEF8BDB7B5CF7BAE7BB29C9294D39C08
:104B6000B29414A5728CCF739294728CF07BAE7356
:104B7000CF7B518CF4A4D39C0C6B92949194508C69
:104B800092941084EF7B1084B294718CB294D39C75
:104B900014A5F39C54B54B8B42496349709CD6BD18
:104BA00054ADD28C0F7C4B638C6B6B6B095BE95AF9
:104BB000E95AC95A8752A852674AC95AE54180182A
:104BC00002296339675A8862423163394752C962A0
:104BD0006C7B4B734B73C9622A738C7BCC7BCC7B15
:104BE000AC7BED83909C2F8CD2A47194B5BD99DEE3
:104BF000B5BDD5C557CEF6C5D5BD95B5B5BDD6BDE8
:104C0000D5BD17C6F6BD17C6B7BD55ADB6B595B57A
:104C100075ADD7BDB6B5D6B574AD75AD96B514A5A1
:104C2000D39C518C518C55AD34A56D73EF83518C51
:104C30003084518C7294728C8E73107C8E6B928C3B
:104C4000CF73EB5AAF733084EF7B8A5AAA5A108C19
:104C50008D738E736D73308414A534A571948D7328
:104C6000518C9294F39CCF7B0F8CA8728351A12816
:104C700037CE54AD54A5F2942F7CEE73AC6BAC736D
:104C8000E95AA952C95AC95AA8526752674AA85A3A
:104C9000222902312652475A8862A8620973633971
:104CA000E96A4B736B7B8C7B885AC9626B73CC7BD4
:104CB0008B7BED83ED838C7B7094B19C5094D29C64
:104CC00074B594B5B4BDD5CDB4C573B594B513A5BD
:104CD000B19CF2A474AD708CEE7BB6B5F8C538CE3D
:104CE00095B534A554ADF083308454ADB194B194EE
:104CF00054AD34A534A5F39C34A5508CCE7BAE7B4B
:104D00000F84508C9194518C9294718C3184CF7B10
:104D100031846E6B2D639294F49CD49C518CCB5A4D
:104D2000CE7BEF837194308C518C508C508C92944C
:104D3000718CD29C34A59194CE7BAE7B4C73644134
:104D40006341D1A417C6D6B5D6AD74A512952F7CF4
:104D50004B632A630A630A63C95AA8528852674A96
:104D6000C541A018A0200231C549A86AE9720A739A
:104D70004A7B675A2A732B732B734B734B736C7379
:104D8000AC7BED83CC7BE962CD836C7BAD83909C67
:104D9000508CF29CF29C9094B09C52BD11B594BD85
:104DA000B5BD75B533AD95B5D5BD53AD74AD929464
:104DB000EF7BD39C34A595AD95B5F39C34A5D29CDF
:104DC000D194D294D294929475AD3084B29433A598
:104DD0009094AE7B2C6BCA5A2C639294518C728C3B
:104DE000EF7B0C63F07B10848E73CF7B528C6E73E1
:104DF000CB5A8D73308CD29CF3A475B58E734D6BEA
:104E00003084F3A4308CB294AD730F84F2A4D29C9E
:104E10009094685A895A54AD34A575A595A51395F3
:104E2000F294908C908C2B638852A95A8852C85A5D
:104E3000E96263314010C120433922318441C551B8
:104E4000C96A2A734A7BE96A4752AC7B2E8CCD83B0
:104E50000E848C7BED83CD83ED838C7B0963CD83C6
:104E6000AD83B19C919474AD53A5F5C531AD4E9C05
:104E7000F0ACF1A4B19C13A595B5F2A4F2A412A5CF
:104E800054ADD39C55AD34A5D6BDF6BDD29C54AD22
:104E900017C6F29C139D95AD51846D6B1084718C77
:104EA00070940E84E9622C6B8E733084AE7BEF7B42
:104EB000CF7BAF73F07BAF73518CCF73EC5A0D6324
:104EC000518C718C518C3084AE7334A5F39CF3A457
:104ED000F4A4AE73CF7B308C8D73EF839194EE830B
:104EE0006C73474AD19C95B538C638BEB6AD34957B
:104EF0001395D194EE738D6B2B5BCA52C95A885AA5
:104F0000E9628752E120801822312652C96AA96AD3
:104F100088626B832A734A7B8B83AC7B2A73CD7B3D
:104F20000E842F8C0E84EE83AD7BED7BED7B2A63AC
:104F3000AC7B909CAD7B509494BDB4B5B09C73B5E4
:104F400010A5497B2973909C54AD7194919475B5CB
:104F5000508C13A513A59194D39C34A533A591949B
:104F600095B533A5919414A554A5D39C518CD39C8D
:104F7000518CD29C12A5B09C2A6B4D6B8A526952FF
:104F80004D6B8E736D6BAF73EC5A8E73107CAE737A
:104F900031849294AF736D6B3084CF7B4D6B718C89
:104FA000718C518C1084518C30844D6BCE7BCE7BB8
:104FB0002F8470942F8C8C7BB19C75ADD3941495F9
:104FC000759DB6A513954F844B63A94AA94ACA5249
:104FD0008852264AA439C12022292652885AC96AF1
:104FE0006B7B6B83A86A8B836B7B8C838B83A862C0
:104FF0006B73AC7B0E844F8C2F8C2F94AD83CD7B49
:105000000D84CC7B4A6BC9626C734F94B5BDB19C67
:105010002E84EC83CF9C10AD4D94F2ACD29CF3A4C3
:10502000919434AD95B5D29CF3A413A5F39C718CE7
:10503000D29C918C13A554AD75ADD39CF49CD49C9B
:1050400015A5F49CB39C13A512A56B730863AAA3C2
:10505000AAA3AAA3AAA3AA9BAA9BAA9B8A9B8A9B50
:105060008A9B899369938A9B69936993489349932F
:10507000EBA3EBA3EBA3CB9BAA9B6A932DAC8FBCBA
:105080008FBC8FBC8FBC6FBC6FBC6FC48FC4D0C4CF
:10509000D0C48FBCAFBCAFBC6EB48FB48FB48FBC68
:1050A0008FBCB0BCB0BC6FBC6FBC90C490BCB0BC7B
:1050B0002EB40A9B4FC432CD73CD6FB412CDF1CC58
:1050C00012CD11CD11CDF1CCD0C4D1C411C511C5B3
:1050D00052CD32D5F2D411CD11CD11CD11D5B0CCE8
:1050E0004FC470CC90C470C4B1CC71C450C450C40F
:1050F000F2D470CC2FC430C450CC50CC30C40FC4C8
:1051000030C450CC30C42FC4D1CCF2D4D1CCD1C413
:1051100011C5F1C4D0C4D1C4D1C4D1C4D0C4B0C4A9
:10512000B0BCAAA3AAA3AAA3AAA3AA9BAA9BAA9B10
:10513000AA9BAA9BAA9B8A9B8A9B8A9B69938A9B10
:10514000AA9B6DB4EBA38A9B8A9BAB9B6A930DAC25
:10515000D0C4AFBCAFBCAFBCD0C4D0C4B0C4D0C44A
:10516000D0C48FBCAFBCAFBCAFBCAFBCD0C4D0BC94
:10517000AFBCB0BCB0C4D0C4D1C4D0C4D1C4D1C4FD
:1051800012CDB0BCB0C470CCEEB353DD73D5B0C497
:10519000F1CC32D512D5F1CCB0C4D0C411CD52CDA2
:1051A00032CD52CD12CDF1CCF1D412CD11CDD1C42E
:1051B0006FBC4FC470CC4FC44FC4B1CC70C470CC62
:1051C00070CC91CCD2D470CC50C450CC50CC50CCFC
:1051D00050CC50CC30C450C430C42FC450C470C460
:1051E000F1CCF1CCD0C4F1C4F1C4F1C4F1C4D1C448
:1051F000D0C4B0BCB0BCAAA3AAA3AAA3AAA3AA9BCA
:10520000AA9BAA9BAA9BAB9B8A93AA9BAA9B8A9BBD
:10521000AAA3899B6DB40CACAA9B8A9B6A93499301
:105220006A93F0C4F0C411CD11C5F1C4D0C4D0C488
:10523000D0C4B0C4B0BCAFBCB0BCF1C4D0C4B0BC6E
:10524000B0C4B0BCF1C4D1C4F1C4D1C4F1C4F1CC78
:10525000F1CCD1C4D1C411CDD1CCD1D4CDBB8DB37F
:10526000F2DC90C4D1C4B0C4B0BCF1C432CD52D5CC
:1052700012CDF1CCF1CCD1C4F1CCD1CC90CC90CC2E
:1052800090C491CCB1CC50C450C491CC2FC450C464
:1052900070CC50CC50CC50CC50C470CC50C450CCFE
:1052A0002FC430C450CC50CC50CC50C430C450C4A7
:1052B0004FC42FBC70C432CDF1C4F1C4D0C4D0BC33
:1052C000D0C4B0BCB0BCF1C4F1C4AAA3AAA3AAA321
:1052D000AAA3AA9BAA9BAA9BAA9B8A9BAA9BAA9BBE
:1052E0008A9BAA9B8A9B4CB44CB4CBA38A9B8A9B77
:1052F000088B298BD0C4D0C4F0C4B0BCD0BCF0C4DF
:10530000F0C4D0BCD0BCF0C411C511CDD0C4D0C441
:10531000D0C4D0C4F1C4D0C4F1C4F1C452CD73D54B
:1053200053D533CD32CD12C5F1C411CDF1CCB0C4BB
:10533000D1D4ADBB8DBBEEB3D1CCD1C4F2C412CDB0
:10534000F1C4F1C4F1CCF1CCF2D4B0CC4FBC4FC419
:1053500070C470C4B1CCB2D451CC71CC50CC71CC2F
:1053600091D471CC50CC4FCC4FCC2FC42FC470CC27
:1053700070CC50CC30C450CC70CC30C450CC50CC5D
:1053800030C450C450C42FBC0FBC90C412CDD0C484
:10539000D0BCF1C4D0C411C5F1C4B0BCB0BCAAA388
:1053A000AAA3AAA3AAA3AB9BAA9BAA9BAA9B8A9BDC
:1053B000AB9BAA9BAA9B69930CAC8EBCCBA3EBA323
:1053C0008A9B6A93088B6EB4F0C4AFBCD0BCF1C4A6
:1053D000D1C4D1C4F1C411C531C511C5F0C4D0BC0C
:1053E00011C511C511C5F1C4F1C432CD32CD53D5AB
:1053F00032CD53CD53CD94DD94D573D5F2C4B1C421
:10540000F1CC11CDF1D40BAB0BAB8CB3D1D4D1CC4F
:10541000D1CCD1C4F2C432CD12D5B1D42FC470CC0A
:1054200070CC70C44FC470C450CC51CC51CC71CC32
:1054300092D430CC30CC30CC50CC4FCC4FCC50CCA4
:1054400050CC70CC70CC50C450CC70CC70CC50C40C
:1054500030C450CC71CC2FC40FBC2FC450C44FBC2F
:10546000B0C412CDF1C4D1C4D1C4B0BCB0BCD0BCA6
:10547000B0BCAAA3AAA3AAA3AAA3AB9BAA9BAA9BBC
:10548000AA9BAA9B8A9B8A9B8A9BCBA38EBC0CACB3
:10549000ECAB8A9BCBA3098B6EB4D0C48FBCD0C4B9
:1054A000B0C4D1C411CD32CD11C5B0BCB0BCD0BCDC
:1054B000F1C411C532CD11C532CD32D532CD33D57F
:1054C00012CDF2C4F2C412CD33CD53CDF2C433CDDC
:1054D00074D5F2CCF2CC12CDF1CC70CC4CB3CDBBA8
:1054E000B1D4B1D4F2CC12CD13CDD2C470C430CC6F
:1054F00050D492D450CC50C470CC70CC91D472D4CF
:1055000030CC71CC71CC51CC71D430CC91D42FC46F
:105510000EC450CC50CC2FC450C42FC450CC50C457
:1055200070CC50C42FC430C471CC50C40FBC2FC435
:1055300050C40FBC2EB4F1CCF2CCB0C4D1C4B0BCBA
:10554000B0BCD0BCB0BCABA3ABA3ABA3ABA3ABA371
:10555000AAA3AA9BAA9BAB9B8A9B8A9BAB9B8EBC54
:10556000ECABCBA30CACCBA38B9BECA3D0C4B0C453
:10557000B0C4F1CCB0C4B0C490C490BC90BCB0C4B2
:10558000F1CCF1CCF1C432CD52CD53CD53CD12C5B7
:10559000B0BCB1C4D1C4D1C4D2C4B1BC12C554CD05
:1055A00012C5F2BC74D554D5F2C4F2CC32D590CC2D
:1055B000B1D42ECC4FCCF2D4F2D4D2CC71C471CCB5
:1055C00071D451D410CC31CC51CC50CC70CCB2D49D
:1055D000B2DC51CC50CC91CC70C470C454E5B2D480
:1055E00050CC50CC0EC450CC4FCC2FC471CC70CC0E
:1055F0002FC450C470CC50C450C42FC42FC450C446
:105600002FC430C40FC450C4B1CC70C4D1CCF1CCC1
:1056100090BCF1C490BCB0BCB0BCABA3ABA3ABA37B
:10562000ABA3ABA3AAA3AA9BAA9BAB9B8A9BCBA32E
:105630006DB40CACCBA3ABA3CBA3AB9BCCA3D0C41E
:10564000AFBCB0C490C46FBC90C4B0C4D1CCF2CCD9
:1056500012CD12CD12CD32D533D553CD53CD53D536
:10566000F2C490BC70B44FB470BC70BCB1C430B460
:10567000B1BC54D533CDB1B433C5D2C475D512CD78
:1056800012CDD1CCB1D40EC470D491D491CC71CC04
:1056900051CC30CC10CCEFC3EFC351CC51CC70CC3B
:1056A00050CC71CC71CC51CC71CC91CC90CC90CCF5
:1056B000B1D451CC51CC71CC70CC2FC44FCC70CC68
:1056C000D2DCD2DC0FBC2FC470CC50C450C40FBC91
:1056D000EFBB0FC40FC430C430CC0FC470CC50C467
:1056E0000EB4D1CC12D590BCD1C4D1C4D0BCABA324
:1056F000ABA3ABA3CBA38A9B8A9BAA9BAAA38A9B9F
:105700008A9B6EBC2DACECA3CBA3AB9B8B9B8B9BE2
:105710008FBCD0C4B0C4D0C4D1C4F1CC12CD12CD92
:10572000F2CCF2CC12CD32D512CD12CD32CD12C583
:1057300033CD13CDB1BC50B491BC2FB4EEABCEABD6
:1057400050B42FB4F2C413CDD2C4F2C4F2C413C502
:1057500094D513CD33CDD1CCF2D4EFCBCECB71DCFD
:1057600010CCEFC3EFC350D471D4F2DC50CC50CC8A
:1057700071D470CC90CCB2D4B2D471CC70CC70CC8B
:105780006FCC90D470CC71CC51C471CC71CC50CC56
:105790000FC42FC470CC70CC2FC42FC450C4B1D44C
:1057A0002FC450C42FC4EFBB30C430CC30CCEFC3B7
:1057B0000FC4EFBB0FBCEEB3B1CCF2CCF1C4D1C47B
:1057C000B0BC8A9BABA3CBA38A9BCBA3CBA3CBA31D
:1057D000AAA38A9B8EBC0CACECA3ECABAB9B6A9BE4
:1057E0008B9BD0C4F1C4D0C4F1CC12D512CDF2CC75
:1057F000F2CCF2CC12CD12CD12CD12CD12CDF1C41D
:1058000090B4F2C412C5F2C450B44FB40FAC0FAC94
:105810002FB40FACAEA391BC13CDD2C4B2C4F2C4AA
:1058200054CD33CD74D533CDF2C4F2CC91CCCEC3AC
:1058300010D46EC34DBB30CC70D450D4D1DCD1D495
:105840008FCC4FCC4FCCB1D470CCB1D4D2D471CC9E
:1058500091CC70CC90D490D470CC71CC51CC71CC14
:1058600051CC50CC70D42FC40EC42FC450CC50CCCB
:1058700091CC13DD13DDCEBB0FC450CC50CC30CC5B
:105880000FC4CFC3CFC30FC430CCEEBBEEB34FBCFD
:10589000D1CC90BC6FB4ABA3CBA3AAA38A9BCBA360
:1058A000AAA38A9BAAA36EBC0CACECABECABABA3DB
:1058B000ABA38B9BB0C4F1CCD1CCD1C4D1CCF1C4BF
:1058C000F1CC32CD32CD12CD33CD12CDF2C412C5D2
:1058D000B1BCD1BCF2C4D1C4F2C491BC2FB470BC71
:1058E00050B42FB42FB470BC50B433D5F3CC74DDA6
:1058F000D2C433CD54D574D573D594D512CD54DDDF
:10590000F3DC92DC8AA210D451DC0FC46FCCD0D46B
:10591000ECB34DBC30DD72E5F0DC6FCC90D470D4CC
:105920004FCC91D470CC50CC70CCD2DC33E513E5A5
:1059300091D430CC50CC50CC70CC70CC2FC40FC490
:105940002FC42FC4EEBBB1D430C430C4ADB3EFC349
:1059500030C410C410CC30CCCFC3CEBB0FC40FBCEE
:105960000FBC0FBC0EB450BC70C4ABA3ABA3AA9BBE
:10597000EBA3CBA3CBA3CBA36DB44DB4EBABCCA328
:105980008B9BAB9B6B9BF0C4D1C4D1CCF1CCF1CC45
:1059900011CD12CD12CD12CDF2C433CD12CD33CDF7
:1059A00012CD32CDF2C433CDB1BC13CDF3CC70BC2B
:1059B00050BC0FB4EEABEFAB50BCB1C413D513D594
:1059C00091C433D5B6E513CDB1C412CDB4DD53D5F2
:1059D00012CD33DDF3DCB6F5CEBB8EBB2FCCB0D40D
:1059E000D0D430DD0CB491E570DD71E592ED52E577
:1059F00011E5D1DCB0D44FCC91D491D4B2D4F3DC46
:105A000091D490D42FCC70D430CC91D450CC50CCF5
:105A100050CC0FC42FC450CC2FC4EFBB0FC4EEBB6F
:105A2000CEBB50CC50CC0FC410C40FCCEFC3EFC3CF
:105A3000EFC3EFC30FC40FBCEEB3EEB350C4CBA3A0
:105A4000AAA3CBA3CBA3CBA3AAA32CB46DBCCBA3FB
:105A5000ECABCCA3ABA34A93B0C4B0C4B0C490BC6D
:105A600090BC90C4B0C4F2CC12CD12CD53D533CD7E
:105A700033CD54D554D513CDD2C474DD74DDF3D4F5
:105A800071C4CEABEFB30FB430B450BC71BC91BC99
:105A900091C4F6EDB5E5F2C433D5F2CCF6ED12CDF6
:105AA000B4E573DD70C413D513DDCEAB6B9B4FBC77
:105AB00031DD31E530E50FDD91E590E5B1ED91E5C2
:105AC00071E592E592E571E572E511DD6FCCB2D436
:105AD00071CC51CC51CC50CC90D470D450CCD2DCC1
