:020000040800F2
:10000000700400207D0100088501000887010008B8
:10001000890100088B0100088D0100080000000024
:100020000000000000000000000000008F01000838
:1000300091010008000000009301000895010008EC
:100040009701000897010008970100089701000830
:100050009701000897010008970100089701000820
:100060009701000897010008970100089701000810
:100070009701000897010008970100089701000800
:100080009701000897010008000000009701000890
:1000900097010008970100089701000897010008E0
:1000A00097010008970100089701000897010008D0
:1000B0009701000800000000970100080000000000
:1000C0009701000800000000970100089701000850
:1000D0009701000897010008970100080000000040
:1000E00000000000000000009701000897010008D0
:1000F0009701000897010008970100089701000880
:1001000097010008000000000000000097010008AF
:1001100000000000000000000000000000000000DF
:1001200000000000000000000000000000000000CF
:1001300000000000000000000000000000000000BF
:1001400000000000000000000000000000000000AF
:10015000000000000000000097010008970100085F
:100160009701000897010008DFF80CD000F018F89C
:1001700000480047AD100008700400200648804782
:1001800006480047FEE7FEE7FEE7FEE7FEE7FEE77C
:10019000FEE7FEE7FEE7FEE7ED0100086901000863
:1001A000064C074D06E0E06840F0010394E80700C4
:1001B00098471034AC42F6D3FFF7DAFF282700083F
:1001C0004827000810B5002807DA0A07140E054A68
:1001D00000F00F031B1FD45403E00A07130E024A5A
:1001E000135410BD18ED00E000E400E010B51D4808
:1001F000006840F001001B49086000BF1948006812
:1002000000F002000028F9D016484068164908405E
:10021000144948600846406814490840114948603C
:100220000846406820F440004860084600681049CD
:1002300008400C4908600846C06A20F00F00C862F8
:100240000846006B40F2431188430649086308469C
:10025000406B20F0010048630020886001F0B8F98D
:1002600010BD0000001002400C00FF08FFFFC27725
:10027000FFFFF2FE014A024900F013B8210700080F
:100280006C00002002E008C8121F08C1002AFAD141
:1002900070477047002001E001C1121F002AFBD106
:1002A00070472DE9F04116460F460446002503E04D
:1002B0003946B047641C6D1C20780028F8D12846C8
:1002C000BDE8F0811CB5022001904FF6E07000F00F
:1002D0003BFD0BA04FF6E0731F223221009014204B
:1002E00000F050FB0BA04FF6E0731F22642100903A
:1002F000084600F047FB4FF47A7000F02FF81CBD61
:10030000436F6C6F7220446973706C61792054651F
:100310007374000059656C6C6F7700004FF0E0213A
:10032000096921F004014FF0E0221161C21700EBCE
:100330005272C2F3C702074B1A701946097801EBD3
:100340004102C2EBC1114FF6FF7202EAC101024A3B
:1003500011807047660000206800002001460D4AA9
:1003600012884A434FF0E0235A6100229A61012229
:100370001A6100BF4FF0E022106900F001021AB1CB
:1003800000F48032002AF5D000224FF0E0231A61F9
:100390009A6170476800002070B5044600251EE091
:1003A000C820FFF7DBFF002000F060FA012000F01A
:1003B0005DFA022000F05AFA032000F057FAC82034
:1003C000FFF7CCFF002000F045FA012000F042FAD0
:1003D000022000F03FFA032000F03CFA6D1CA54219
:1003E000DED370BD1CB5002001901F2000F0ACFCD6
:1003F0005CA01F234FF6FF720A210090022000F03C
:10040000C1FA60A01F234FF6FF721E210090022048
:1004100000F0B8FA63A01F234FF6FF72322100905C
:10042000022000F0AFFA66A01F234FF6FF724C21A6
:1004300000909DF8040000F0A5FA69A01F234FF674
:10044000FF725C2100909DF8040000F09BFA6BA005
:100450001F234FF6FF726C2100909DF8040000F0FE
:1004600091FA6DA01F234FF6FF727C2100909DF83A
:10047000040000F087FA6FA01F234FF6FF728C2153
:1004800000909DF8040000F07DFA71A01F234FF644
:10049000FF72B02100909DF8040000F073FA74A080
:1004A0001F234FF6FF72C02100909DF8040000F05A
:1004B00069FA76A01F234FF6FF72D02100909DF8B5
:1004C000040000F05FFA78A01F234FF6FF72E021CE
:1004D00000909DF8040000F055FA7AA01F234FF613
:1004E000FF72F02100909DF8040000F04BFA7CA010
:1004F0001F234FF6FF724FF48C7100909DF804009B
:1005000000F016FB4FF47A70FFF728FF1F2000F071
:100510001BFC7BA01F234FF6FF720A2100901020C6
:1005200000F030FA7AA01F234FF6FF721E210090D0
:10053000102000F0FDFA72A01F234FF6FF72322147
:100540000090102000F01EFA71A01F234FF6FF72DA
:1005500046210090102000F0EBFA40F6B830FFF78B
:10056000FDFE1CBD204769676144657669636520AF
:1005700053656D69636F6E647563746F7220496E45
:10058000632E000020202D2D204744333246317841
:100590003020536572696573204D4355202D2D2001
:1005A00020200000202020202047443332463135CF
:1005B00030525F4541564C5F56312E3220200000AC
:1005C00020202020202D2D2D2D2047443332463150
:1005D0003330202D2D2D2D20202020202000000024
:1005E0002020202020202020204744333246313351
:1005F00030467820202020202000000020202020CD
:1006000020202020204744333246313330475820C1
:10061000202020202000000020202020202020203A
:100620002047443332463133304378202020202085
:1006300020000000202020202020202020474433BC
:100640003246313330527820202020202000000014
:1006500020202020202D2D2D2D20474433324631BF
:100660003530202D2D2D2D20202020202000000091
:1006700020202020202020202047443332463135BE
:10068000304678202020202020200000202020201C
:10069000202020202047443332463135304B58202B
:1006A000202020202020000020202020202020208A
:1006B00020474433324631353043782020202020F3
:1006C000200000002020202020202020204744332C
:1006D0003246313530527820202020202000000082
:1006E0002020536D617274657221204661737465B8
:1006F000722120436865617065722120200000002E
:100700002020202020202020B2E2CAD42020200057
:1007100020202020202020B2E2CAD4202020000067
:1007200070B504460D46E1B2054800F0D9FF00BFA0
:100730004021034800F0F8FF0028F9D0204670BDA2
:100740000038014070B505462948854200D1002493
:1007500040F2115000F036FE264931F8140000F046
:1007600031FE254830F8240082B201214FF090403C
:1007700000F088F8214830F8240082B201214FF0BF
:10078000904000F07FF81C4830F8240083B201222A
:1007900002214FF0904000F0A8F8174830F82400EC
:1007A00083B2012200214FF0904000F0C7F81348B7
:1007B00030F8240083B2012202214FF0904000F073
:1007C00094F80E4830F8240083B2012200214FF043
:1007D000904000F0B3F8284600F086FF4FF4E13176
:1007E000284600F03BFF0521284600F0A5FF70BD1C
:1007F000003801401C0000202000002024000020C0
:1008000010B50446104931F8140000F0DBFD0F4923
:1008100031F814300E4951F824000022012100F073
:1008200064F80A4931F81430094951F824000322C8
:10083000002100F083F8054830F81400044951F80D
:100840002410886210BD0000280000201400002041
:1008500004000020034931F81010034A52F8202008
:10086000916270471400002004000020034931F811
:100870001010034A52F820209161704714000020A4
:1008800004000020F0B503461C6A5D6A00200FE0FA
:1008900001268640164006B908E087000F26BE40B4
:1008A000B443860001FA06F6344300BF461CB0B2DA
:1008B0000828EDDB082013E001268640164006B923
:1008C0000CE0A0F10806B7000F26BE40B543A0F12A
:1008D0000806B60001FA06F6354300BF461CB0B262
:1008E0001028E9DB1C625D62F0BDF0B504460D46E0
:1008F00016462168E26800201BE0012787401F4060
:1009000007B914E04FEA400C032707FA0CF7B94384
:10091000470005FA07F739434FEA400C032707FA67
:100920000CF7BA43470006FA07F73A4300BF471CE3
:10093000B8B21028E1DB2160E260F0BDF0B50C46F2
:100940001546012C03D146681E43466002E0466806
:100950009E434660826800210FE001268E401E40C3
:1009600006B908E04F000326BE40B2434E0005FA28
:1009700006F6324300BF4E1CB1B21029EDDB826097
:10098000F0BD00002DE9F84F0746884693469A4689
:10099000DDF828900097202062490860B7E099F8B8
:1009A000000080283DDA99F800600D2E05D1009FE7
:1009B00008F110001FFA80F830E0202E03DDA6F1C8
:1009C000200086B200E00026002422E000251CE082
:1009D00004EB06105449085C80212941084040B1CD
:1009E00008EB040291B27A1990B25A4600F09CF9D1
:1009F00009E0D34507D008EB040291B27A1990B20E
:100A0000524600F091F9681CC5B2082DE0DB601C6D
:100A1000C4B2102CDADB07F1080087B209F1010932
:100A200075E000266CE0C6EBC60000EB80003F4995
:100A3000085C99F80010884260D1C6EBC60000EB54
:100A400080003A490844407899F80110884255D10D
:100A5000002451E0002521E0C6EBC60000EB800039
:100A600032490844C01C10F814108020284101406D
:100A700041B108EB040291B27A1990B25A4600F0E3
:100A800053F909E0D34507D008EB040291B27A1973
:100A900090B2524600F048F9681CC5B2082DDBDB65
:100AA000002525E0C6EBC60000EB80001F49084486
:100AB000C01C012101EB4401405C80212941084018
:100AC00048B108EB040291B27A19083290B25A4642
:100AD00000F02AF90AE0D34508D008EB040291B2ED
:100AE0007A19083290B2524600F01EF9681CC5B25D
:100AF000082DD7DB601CC4B2102CABDB701C86B297
:100B0000642E90DB09F1020907F1100087B299F811
:100B1000000000287FF443AF20200249103908600C
:100B2000BDE8F88F28140048901700080225000837
:100B30002DE9F05F0646884693469A46DDF82890F0
:100B4000202076490860DDE099F80000802835DA39
:100B500099F80070202F03DDA7F1200087B200E094
:100B60000027002522E000241CE005EB07106C495B
:100B7000085C80212141084040B108EB050291B298
:100B8000321990B25A4600F0CFF809E0D34507D0A9
:100B900008EB050291B2321990B2524600F0C4F847
:100BA000601CC4B2082CE0DB681CC5B2102DDADB77
:100BB00009F1010906F1080086B2A3E0002799E0D7
:100BC000C7EB071000EB80005649085C99F800104D
:100BD000884278D1C7EB071000EB800051490844E8
:100BE000407899F801108842F3D100257DE0002477
:100BF00022E0C7EB071000EB80004A490844C01C04
:100C000005EB4501415C80202041014041B108EBEA
:100C1000050291B2321990B25A4600F085F809E007
:100C2000D34507D008EB050291B2321990B2524673
:100C300000F07AF8601CC4B2082CDADB002425E04E
:100C4000C7EB071000EB800036490844C01C05EBD9
:100C50004501491C405C80212141084048B108EB16
:100C6000050291B23219083290B25A4600F05CF88F
:100C70000AE0D34508D008EB050291B232190832D8
:100C800090B2524600F050F8601CC4B2082CD7DB7A
:100C9000002426E0C7EB071000EB80002149084440
:100CA000C01C05EB4501891C405C802121410840A6
:100CB00050B108EB050291B23219103290B25A4687
:100CC00000F032F80BE013E0D34508D008EB050242
:100CD00091B23219103290B2524600F025F8601CE1
:100CE000C4B2082CD6DB681CC5B2182DFFF67FAF46
:100CF000781C87B2642FFFF663AF09F1020906F191
:100D0000180086B299F8000000287FF41DAF20205B
:100D1000024910390860BDE8F09F0000281400481F
:100D200090170008B125000870B505460E46144618
:100D30003146284600F07EF9201200F091F9E0B229
:100D400000F08EF970BD000070B5044640F23F130C
:100D5000EF220021084600F043F908200E49086000
:100D600020200E49086000250DE0002608E0211231
:100D70000B4800F0C9FBE1B2094800F0C5FB761C46
:100D8000F02EF4D36D1CB5F5A07FEED320200349DF
:100D90001039086070BD0000180800482814004889
:100DA0000030014010B500F03DFB20208249086072
:100DB00000F004F9CB2000F06BF9392000F050F975
:100DC0002C2000F04DF9002000F04AF9342000F00A
:100DD00047F9022000F044F9CF2000F059F9002033
:100DE00000F03EF9C12000F03BF9302000F038F966
:100DF000E82000F04DF9852000F032F9002000F0E5
:100E00002FF9782000F02CF9EA2000F041F90020B9
:100E100000F026F9002000F023F9ED2000F038F969
:100E2000642000F01DF9032000F01AF9122000F0F0
:100E300017F9812000F014F9F72000F029F920209B
:100E400000F00EF9C02000F023F9232000F008F98B
:100E5000C12000F01DF9102000F002F9C52000F0BB
:100E600017F93E2000F0FCF8282000F0F9F8C72020
:100E700000F00EF9862000F0F3F8362000F008F9B3
:100E8000482000F0EDF83A2000F002F9552000F07B
:100E9000E7F8B12000F0FCF8002000F0E1F818209D
:100EA00000F0DEF8B62000F0F3F8082000F0D8F8E3
:100EB000822000F0D5F8272000F0D2F8F22000F0D0
:100EC000E7F8002000F0CCF8262000F0E1F801203F
:100ED00000F0C6F8E02000F0DBF80F2000F0C0F8CA
:100EE000312000F0BDF82B2000F0BAF80C2000F003
:100EF000B7F80E2000F0B4F8082000F0B1F84E204A
:100F000000F0AEF8F12000F0ABF8372000F0A8F8C0
:100F1000072000F0A5F8102000F0A2F8032000F050
:100F20009FF80E2000F09CF8092000F099F80020AE
:100F300000F096F8E12000F0ABF8002000F090F807
:100F40000E2000F08DF8142000F08AF8032000F045
:100F500087F8112000F084F8072000F081F8312094
:100F600000F07EF8C12000F07BF8482000F078F80F
:100F7000082000F075F80F2000F072F80C2000F047
:100F80006FF8312000F06CF8362000F069F80F207F
:100F900000F066F8112000F07BF87820FFF7DEF90A
:100FA000292000F075F82C2000F072F8202002496A
:100FB0001039086010BD00002814004810B510203A
:100FC000064908606420FFF7C9F910200349103969
:100FD00008603220FFF7C2F910BD00002808004861
:100FE0002DE9F04104460D4616461F4620201049C3
:100FF00008602A2000F04CF8E1B2201200F03EF820
:10100000F1B2301200F03AF82B2000F041F8E9B2CA
:10101000281200F033F8F9B2381200F02FF82C2023
:1010200000F036F82020024910390860BDE8F08150
:101030002814004870B504460D462A2000F028F810
:10104000E1B2201200F01AF82B2000F021F8E9B2EA
:10105000281200F013F82C2000F01AF870BD0000E0
:1010600010B504460820034908602146024800F0F4
:101070004BFA10BD180800480030014070B5054615
:101080000C462846FFF7ECFF2046FFF7E9FF70BD4E
:1010900010B504460820034908602146024800F0C4
:1010A00033FA10BD280800480030014000F094FADF
:1010B00000F0BAFA1348FFF745FB4820FFF72EF976
:1010C0000220FFF769F940F2115000F07BF940F27D
:1010D000125000F077F940F2135000F073F940F22B
:1010E000165000F06FF9FFF75DFE07A0FFF7C2F89A
:1010F0001F20FFF729FEFFF775F9FFF7E3F800BFA0
:10110000FEE700000038014073797320696E69744E
:101110002073756363657373200A00002DE9F04F37
:101120008FB004464FF0000CE0460020002200255E
:101130008146CDF838900021CDF83490CDF830902C
:10114000CDF82C900023CDF82890CDF82490CDF840
:101150002090002600270FF24C2999E8004CD9F87E
:101160000C90CDE905BECDF810A0CDF81C900FF283
:10117000382ADAE9009ACDE9029A0FF22C2ADAE944
:10118000009ACDE9009ADFF82C92D9F80490C9F3BF
:10119000810CBCF1000F06D0BCF1010F05D0BCF1F1
:1011A000020F3FD103E0844A3EE0834A3CE0DFF88F
:1011B0000492D9F80490C9F38343DFF8F891D9F881
:1011C0000490C9F3C069CDF82890DDF82890B9F1F2
:1011D000000F01D0113300E09B1CDFF8D891D9F843
:1011E0000490C9F30049CDF82490DDF82490B9F1BA
:1011F000000F12D0DFF8BC91D9F82C9009F00F093C
:1012000009F10109CDF82090DFF8ACA1DDF82090BC
:10121000BAFBF9F909FB03F203E0DFF8A09103FB45
:1012200009F201E0644A00BF00BFDFF88891D9F8F5
:101230000490C9F303160DF1100919F8067022FA8B
:1012400007F5DFF87091D9F80490C9F302260DF183
:10125000080919F8067025FA07F9CDF83890DFF873
:101260005491D9F80490C9F3C2261DF8067025FAE6
:1012700007F1072C72D2DFE804F00406080A0C47D5
:101280005B00104689E0284687E00E9885E0084616
:1012900083E0DFF82091D9F8309009F48079B9F52E
:1012A000807F04D0DFF81891CDF834902AE0DFF881
:1012B0000491D9F80490C9F38138B8F1000F09D02E
:1012C000B8F1010F0BD0B8F1020F0DD0B8F1030F38
:1012D00016D110E04FEA5109CDF8349011E04FEAF1
:1012E0009109CDF834900CE04FF00609B1FBF9F903
:1012F000CDF8349005E04FEAD109CDF8349000E004
:1013000000BF00BF0D9848E0DFF8A890D9F83090F2
:1013100009F04009B9F1400F04D048F21209CDF8A4
:10132000309003E04FF40049CDF830900C9834E051
:10133000DFF88090D9F8309009F00309B9F1000F77
:1013400001D10B9126E0DFF86C90D9F8309009F0CC
:101350000309B9F1010F02D10B921BE01CE0DFF889
:101360005490D9F8309009F00309B9F1020F04D173
:101370004FF40049CDF82C900CE0DFF83890D9F804
:10138000309009F00309B9F1030F03D1DFF8289079
:10139000CDF82C900B9800E000BF00BF0FB0BDE867
:1013A000F08F0000000000000000000001020304B4
:1013B000060708090010024000127A0000093D00EB
:1013C000809FD500064A02EBA011096800F01F03B8
:1013D00001229A401143024B03EBA01211607047A7
:1013E00000100240064A02EBA011096800F01F033A
:1013F00001229A409143024B03EBA0121160704707
:1014000000100240064A02EBA011096800F01F0319
:1014100001229A401143024B03EBA0121160704766
:101420000010024000B587B040F20C60FFF7CAFF21
:10143000382200212148FFF725FA38230022022113
:101440001E48FFF752FA3823032200211B48FFF7FA
:1014500075FA1823002201211948FFF746FA1823CC
:10146000032200211648FFF769FA202300220121F8
:101470001448FFF73AFA2023032200211148FFF70E
:101480005DFA002001904FF48270009000200290DD
:10149000032005904FF40070039000200690049004
:1014A0006946094800F01DF80721074800F00EF8CA
:1014B000054800F011F807B000BD00000004004826
:1014C000000800480014004800300140026842F45F
:1014D0000052026001617047016841F04001016003
:1014E00070470246002010680B6818434B68184389
:1014F0008B681843CB6818430B6918434B69184332
:101500008B69184310607047024600BF906800F076
:1015100002000028FAD0D16000BF906800F00100FE
:101520000028FAD0D068C0B27047000000202649D9
:10153000096841F48031244A116000BF22490968DA
:1015400001F4003121B90146401CB1F5006FF5D11D
:101550001D49096801F4003101B970471A49496809
:10156000194A5160114649685160114649685160F5
:1015700011464968154A1140134A5160114649689D
:1015800041F4E81151601146096841F08071116021
:1015900000BF0D49096801F000710029F9D00A491E
:1015A000496821F00301084A51601146496841F039
:1015B0000201516000BF0449496801F00801002997
:1015C000F9D000BFC9E7000000100240FFFFC2775A
:1015D00010B5FFF7ABFF10BD10B5124800684FF40F
:1015E0007A71B0FBF1F4601EB0F1807F01D301206D
:1015F0000FE0601E4FF0E02148610F214FF0FF30F7
:10160000FEF7E0FD00204FF0E0218861072008612F
:10161000002008B100BFFEE70021481EFEF7D2FD02
:1016200010BD00000000002010B50020FFF7E8F812
:101630000120FFF7E5F80220FFF7E2F80320FFF7AB
:10164000DFF80020FFF706F90120FFF703F9022079
:10165000FFF700F90320FFF7FDF810BD2DE9F04773
:1016600004460D460027B846B94600261B482044CC
:1016700038B1B0F5744F09D10620FFF74FFD07468A
:1016800005E00220FFF74AFD074600E000BF00BF6B
:10169000206800F4004080B1780000EB5500B0FBFA
:1016A000F5F64FF6F07006EA000806F00709E16863
:1016B00048EA09000143E1600EE007EB5500B0FB8A
:1016C000F5F64FF6F07006EA000806F00F09E1683B
:1016D00048EA09000143E160BDE8F08700BCFFBFB4
:1016E000C1F308028262704710B504460D482044D9
:1016F00058B1B0F5744F11D140F20E30FFF782FEB1
:1017000040F20E30FFF76EFE09E040F21140FFF7A5
:1017100079FE40F21140FFF765FE00E000BF00BF18
:1017200010BD000000BCFFBF0246D069084008B1F0
:10173000012070470020FCE7062922D2DFE801F0F3
:101740001C080D121703026842F00C02026019E037
:10175000026842F00402026014E0026842F00802EB
:1017600002600FE0026822F0040202600AE00268F0
:1017700022F00802026005E0026822F00C0202601A
:1017800000E000BF00BF026842F001020260704743
:101790000000000000000000000000000000000049
:1017A0000010101010101010101000001010000089
:1017B00000006C6C24240000000001000000000008
:1017C0000024242424FE48484848FC90909090002F
:1017D00000103C5492905038141212925478100019
:1017E0000000225C94A8481010242A52548800005B
:1017F000000030484850206E54948C888A74000051
:101800000000303010100000000000000000000058
:1018100000040810102020202020201010080400B0
:101820000080402020101010101010202040800058
:101830000000000010543810385410000000000060
:1018400000000010101010FE10101010000000001A
:101850000000000000000000000000001010200048
:1018600000000000000000FE00000000000000007A
:101870000000000000000000000000001010000048
:101880000000040408081010202040408080000060
:101890000000384482828282828282824438000040
:1018A000000010701010101010101010107C0000AC
:1018B00000003844828204081020408284FC00002A
:1018C00000003844820204380402028244380000D6
:1018D0000000040C141424244444FE04040E0000EC
:1018E0000000FC808080B8C48202028284780000FC
:1018F00000003C428280B8C4828282824438000068
:1019000000007E4282040408080810101010000035
:101910000000384482824438448282824438000085
:101920000000384482828282463A028244380000B3
:101930000000000010100000000010100000000067
:101940000000000010100000000000101020000037
:10195000000000000618608060180600000000000B
:10196000000000000000FE0000FE0000000000007B
:1019700000000000C0300C020C30C000000000006D
:101980000038448282020408101010001010000079
:1019900000003844829AAAAAAAAAAA9680423C00C9
:1019A000000010101028282844447C4444EE000015
:1019B0000000FC424242427C4242424242FC000061
:1019C00000003C4482808080808082824438000015
:1019D0000000F844424242424242424244F800007F
:1019E0000000FC444240447C4440404244FC00002F
:1019F0000000FC444240447C4440404040F0000031
:101A00000000344C828080808E8484844C340000BA
:101A10000000EE444444447C4444444444EE00000A
:101A200000007C101010101010101010107C00001E
:101A300000003E08080808080808088888700000A8
:101A40000000EE44484850605048484444EE0000CE
:101A50000000E040404040404040404244FC000024
:101A60000000C6446C6C6C545454444444EE000072
:101A70000000CE4464646454544C4C4C44E4000074
:101A8000000038448282828282828282443800004E
:101A90000000F844424242447840404040E00000A8
:101AA0000000384482828282828282BA443C0200F0
:101AB0000000F048444444487048444444E6000070
:101AC00000003C44828040300C02028244780000D6
:101AD00000007C54921010101010101010380000EC
:101AE0000000EE4444444444444444444438000028
:101AF0000000EE4444444428282828101010000018
:101B00000000EE445454545454542828282800000B
:101B10000000EE44442828101028284444EE000019
:101B20000000EE444428282810101010103800003F
:101B300000007E44840808102020408284FC0000BD
:101B4000001C1010101010101010101010101C009D
:101B50000000EE445454FE54545428282828000011
:101B600000701010101010101010101010107000D5
:101B70000030488400000000000000000000000069
:101B80000000000000000000000000000000FE0057
:101B900000402000000000000000000000000000E5
:101BA0000000000000007884047C84848C760000AF
:101BB0000000C04040405864424242426458000025
:101BC000000000000000384480808080443800001D
:101BD00000000C040404344C848484844C360000DB
:101BE000000000000000788484FC8080847800007D
:101BF000000018242020F820202020202070000041
:101C00000000000000003A444478807C82827C001E
:101C10000000C040404058644444444444EE000046
:101C200000001010000030101010101010380000CC
:101C30000000101000003010101010101090600004
:101C40000000C04040405C485060504844EE0000F6
:101C5000000030101010101110101010103900007A
:101C6000000000000000ACD29292929292D6000046
:101C700000000000000058E44444444444EE0000E6
:101C80000000000000003844828282824438000054
:101C9000000000000000D864424242645840E00066
:101CA000000000000000364C8484844C34040E0094
:101CB0000000000000006C30202020202070000078
:101CC00000000000000078888460188444780000D8
:101CD000000000202020F8202020202024180000D0
:101CE000000000000000C64242424242463A000064
:101CF000000000000000EE444428282810100000D6
:101D0000000000000000EE4444545428282800003D
:101D1000000000000000EE442810102844EE0000EF
:101D2000000000000000EE444428281010A0C0006D
:101D30000000000000007E448810204284FC000067
:101D4000000C1010101010601010101010100C006B
:101D500000101010101010101010101010101000A3
:101D600000C0202020202018202020202020C0007B
:101D700000000000000000728C0000000000000065
:101D80000000000000001FE000003FF000003FF0F6
:101D900000001FE0000180060003C00F0003C00F19
:101DA0000003C00F0003C00F0003C00F0003C00FEB
:101DB0000003C00F0003C00F000300030000000079
:101DC0000000000000000000000300030003C00F3B
:101DD0000003C00F0003C00F0003C00F0003C00FBB
:101DE0000003C00F0003C00F0003C00F00018006F6
:101DF00000001FE000003FF000003FF000001FE087
:101E000000000000000000000000008000000180D1
:101E100000000380000007800000078000000780AA
:101E20000000078000000780000007800000078096
:101E30000000078000000780000001800000000013
:101E4000000000000000000000000180000007808A
:101E50000000078000000780000007800000078066
:101E60000000078000000780000007800000078056
:101E700000000380000001800000008000000000DE
:101E80000000000000001FE000003FF00000FFF035
:101E90000001FFE0000000060000000F0000000F3E
:101EA0000000000F0000000F0000000F0000000FF6
:101EB0000000000F0000000F00001FE300007FF88B
:101EC00000007FF800001FE0000300000003C000D6
:101ED0000003C0000003C0000003C0000003C000F6
:101EE0000003C0000003C0000003C0000001800028
:101EF00000001FF000003FF800003FFC00001FFE44
:101F0000000000000003FF800001FFC00000FFC0D0
:101F100000007F80000000180000003C0000003C32
:101F20000000003C0000003C0000003C0000003CC1
:101F30000000003C0000003C00007F8C0001FFE03E
:101F40000001FFF000007F800000000C0000003C5A
:101F50000000003C0000003C0000003C0000003C91
:101F60000000003C0000003C0000003C00000018A5
:101F700000007F800000FFC00001FFC00003FF8061
:101F80000000000000000000000200010003000348
:101F9000000380070003C00F0003C00F0003C00F41
:101FA0000003C00F0003C00F0003C00F0003C00FE9
:101FB0000003C00F0003C00F00031FE300007FF801
:101FC00000007FFC00001FE0000000030000000F85
:101FD0000000000F0000000F0000000F0000000FC5
:101FE0000000000F0000000F0000000F0000000FB5
:101FF00000000007000000030000000100000000D6
:102000000000000000001FFC00003FF800003FF04F
:1020100000001FE0000180000003C0000003C000BA
:102020000003C0000003C0000003C0000003C000A4
:102030000003C0000003C00000031FE000007FF8A1
:1020400000007FF800001FE0000000030000000F08
:102050000000000F0000000F0000000F0000000F44
:102060000000000F0000000F0000000F000000063D
:1020700000003FE000007FF00000FFF00001FFE003
:102080000000000000001FFC00003FF800003FF0CF
:1020900000001FE0000180000003C0000003C0003A
:1020A0000003C0000003C0000003C0000003C00024
:1020B0000003C0000003C00000031FE000007FF821
:1020C00000007FFC00001FE0000300030003C00FBE
:1020D0000003C00F0003C00F0003C00F0003C00FB8
:1020E0000003C00F0003C00F0003C00F00018006F3
:1020F00000001FE000003FF000003FF000001FE084
:10210000000000000007FFE00003FFC00001FF889F
:102110000000FF1800000038000000780000007880
:1021200000000078000000780000007800000078CF
:102130000000007800000078000000180000000097
:1021400000000000000000000000001800000078FF
:10215000000000780000007800000078000000789F
:10216000000000780000007800000078000000788F
:102170000000003800000018000000080000000007
:102180000000000000001FE000003FF000003FF0F2
:1021900000001FE0000180060003C00F0003C00F15
:1021A0000003C00F0003C00F0003C00F0003C00FE7
:1021B0000003C00F0003C00F00031FE300007FF8FF
:1021C00000007FFC00001FE0000300030003C00FBD
:1021D0000003C00F0003C00F0003C00F0003C00FB7
:1021E0000003C00F0003C00F0003C00F00018006F2
:1021F00000001FE000003FF000003FF000001FE083
:102200000000000000001FE000003FF000003FF071
:1022100000001FE0000180060003C00F0003C00F94
:102220000003C00F0003C00F0003C00F0003C00F66
:102230000003C00F0003C00F00031FE300007FF87E
:1022400000007FFC00001FE0000000030000000F02
:102250000000000F0000000F0000000F0000000F42
:102260000000000F0000000F0000000F000000063B
:1022700000001FE000003FF000007FF00000FFE0E2
:10228000000000000000000000000000000000004E
:10229000000000000000000000000000000000003E
:1022A000000000000000000000000000000000002E
:1022B000000000000000000000000000000000001E
:1022C000000000000000000000000000000000000E
:1022D0000000000000007800000078000000780096
:1022E0000000780000007800000078000000000086
:1022F00000000000000000000000000000000000DE
:1023000000000000000000000000000000000000CD
:1023100000000000000000000000000000000000BD
:102320000000070000000F8000000F8000000F80F9
:102330000000070000000000000000000000000096
:102340000000000000000000000000000000070086
:1023500000000F8000000F8000000F8000000700C9
:10236000000000000000000000000000000000006D
:10237000000000000000000000000000000000005D
:10238000000000000000000000000000000000004D
:102390000007C006000FE0060000000C003018180F
:1023A0000030181800301830003018300030186035
:1023B000003008C00007C0C0000FE080000000002F
:1023C0000000000FE0000607C000063018000C30C7
:1023D00018000C3018001830180030301800303059
:1023E000180060000000C00FE000C007C00000003F
:1023F00000000000000000000000000000000000DD
:1024000000000000000000000000000000000000CC
:102410000000000000000000000700E0000887FC4A
:1024200000088E0300089801800718008000300023
:10243000000030000000700000006000000060003C
:1024400000006000000060000000600000007000FC
:1024500000003000000030000000380000001801CB
:1024600000000C03000007FC000001F00000000069
:10247000000000000000000000000000000000005C
:10248000000000000000000000000000000000004C
:10249000000000000000000000000000000000003C
:1024A000000000000000000000000000000000002C
:1024B00000000000000000000000000000003FF0ED
:1024C00000007FF000007FE00000FFC0000000007F
:1024D00000000000000000000000000000000000FC
:1024E00000000000000000000000000000000000EC
:1024F00000000000000000000000000000000000DC
:102500000000CFD40000001FF0101010101FF010BA
:102510001010101FF0044044442444144814500484
:1025200040FFFE0000CABE0000003FF800000000AF
:1025300000000000FFFE010001001110110821043D
:102540004102810205000200B2E200000427C41427
:10255000441454855445544554155415542554E594
:102560005421042284224424140808CAD4000028D8
:1025700020241024102007FE0020F02017E0112056
:1025800011101110151019CA170A020600020000D6
:10259000000000000000000000000000000000003B
:1025A000000000000000000000000000000000002B
:1025B00000CFD40000000000000007FF000F03C0A0
:1025C0000C00401FF8601800600800400E01C007B2
:1025D000FF000000000184000184001987800F8C37
:1025E000E0078C2000CC0003FFE01FFFC0000000CC
:1025F000000000000000000000000000CABE000053
:1026000000000000000E00001FFFC0007FE000007F
:1026100000000000000000000000003FC03FFFE09D
:102620000030000030000030000613000C13C00C16
:1026300018F0181800181800000000000000000032
:1026400000000000000000B2E200000000000000F6
:1026500000003039FC301FCC300706B00F06F019EF
:1026600007B03137B03136F01F27F00167F001E5D0
:10267000F001E1F00041F00CF8B03CD830008C30B3
:10268000008030000000000000000000000000009A
:102690000000CAD4000000000000000803600C0322
:1026A000700C0330003FE0003F800801003C0180D7
:1026B000047F80047D800C00800C10C00C10C00CC6
:1026C00018400C1C600F7E60067030000030000067
:1026D00000000000000000000000000000000000FA
:1026E00000000000000000000000000000000000EA
:1026F00000000000000000000000000000000000DA
:1027000000000000000000000000000000000000C9
:1027100000000000000000000000000000000000B9
:102720000000000000000000482700080000002012
:102730007000000084020008B82700087000002024
:10274000000400009402000800A24A0400080048A7
:102750000008004800080048000C00480004000879
:10276000001004000E06000000020000000400003B
:102770001305130513051405000000480008004860
:102780000014004801000020800011051305160503
:102790000100000000200000800000000000020096
:1027A000050000000D0007000500070007000000FD
:0827B000000000000000000021
:040000050800016985
:00000001FF
